{
  "_format": "hh-sol-artifact-1",
  "contractName": "ProductLifecycle",
  "sourceName": "contracts/ProductLifecycle.sol",
  "abi": [
    {
      "anonymous": false,
      "inputs": [
        {
          "indexed": false,
          "internalType": "uint256",
          "name": "id",
          "type": "uint256"
        },
        {
          "indexed": false,
          "internalType": "string",
          "name": "technicianName",
          "type": "string"
        },
        {
          "indexed": false,
          "internalType": "string",
          "name": "certificateHash",
          "type": "string"
        },
        {
          "indexed": false,
          "internalType": "uint256",
          "name": "timestamp",
          "type": "uint256"
        }
      ],
      "name": "ProductRefurbished",
      "type": "event"
    },
    {
      "anonymous": false,
      "inputs": [
        {
          "indexed": false,
          "internalType": "uint256",
          "name": "id",
          "type": "uint256"
        },
        {
          "indexed": false,
          "internalType": "string",
          "name": "name",
          "type": "string"
        },
        {
          "indexed": false,
          "internalType": "string",
          "name": "category",
          "type": "string"
        },
        {
          "indexed": false,
          "internalType": "string",
          "name": "manufacturer",
          "type": "string"
        }
      ],
      "name": "ProductRegistered",
      "type": "event"
    },
    {
      "inputs": [
        {
          "internalType": "uint256",
          "name": "_id",
          "type": "uint256"
        }
      ],
      "name": "getProduct",
      "outputs": [
        {
          "components": [
            {
              "internalType": "uint256",
              "name": "id",
              "type": "uint256"
            },
            {
              "internalType": "string",
              "name": "name",
              "type": "string"
            },
            {
              "internalType": "string",
              "name": "category",
              "type": "string"
            },
            {
              "internalType": "string",
              "name": "manufacturer",
              "type": "string"
            },
            {
              "internalType": "uint256",
              "name": "manufactureYear",
              "type": "uint256"
            },
            {
              "internalType": "string",
              "name": "serialNumber",
              "type": "string"
            },
            {
              "internalType": "uint256",
              "name": "warrantyPeriod",
              "type": "uint256"
            },
            {
              "internalType": "string",
              "name": "condition",
              "type": "string"
            },
            {
              "internalType": "string",
              "name": "locationOfRegistration",
              "type": "string"
            },
            {
              "internalType": "bool",
              "name": "isRefurbished",
              "type": "bool"
            },
            {
              "components": [
                {
                  "internalType": "uint256",
                  "name": "timestamp",
                  "type": "uint256"
                },
                {
                  "internalType": "string",
                  "name": "details",
                  "type": "string"
                },
                {
                  "internalType": "string[]",
                  "name": "replacedComponents",
                  "type": "string[]"
                },
                {
                  "internalType": "string",
                  "name": "technicianName",
                  "type": "string"
                },
                {
                  "internalType": "string",
                  "name": "certificateHash",
                  "type": "string"
                },
                {
                  "internalType": "uint256",
                  "name": "warrantyExtension",
                  "type": "uint256"
                },
                {
                  "internalType": "uint256",
                  "name": "refurbishmentCost",
                  "type": "uint256"
                },
                {
                  "internalType": "string",
                  "name": "newSerialNumber",
                  "type": "string"
                }
              ],
              "internalType": "struct ProductLifecycle.Refurbishment[]",
              "name": "refurbishments",
              "type": "tuple[]"
            }
          ],
          "internalType": "struct ProductLifecycle.Product",
          "name": "",
          "type": "tuple"
        }
      ],
      "stateMutability": "view",
      "type": "function"
    },
    {
      "inputs": [],
      "name": "productCount",
      "outputs": [
        {
          "internalType": "uint256",
          "name": "",
          "type": "uint256"
        }
      ],
      "stateMutability": "view",
      "type": "function"
    },
    {
      "inputs": [
        {
          "internalType": "uint256",
          "name": "",
          "type": "uint256"
        }
      ],
      "name": "products",
      "outputs": [
        {
          "internalType": "uint256",
          "name": "id",
          "type": "uint256"
        },
        {
          "internalType": "string",
          "name": "name",
          "type": "string"
        },
        {
          "internalType": "string",
          "name": "category",
          "type": "string"
        },
        {
          "internalType": "string",
          "name": "manufacturer",
          "type": "string"
        },
        {
          "internalType": "uint256",
          "name": "manufactureYear",
          "type": "uint256"
        },
        {
          "internalType": "string",
          "name": "serialNumber",
          "type": "string"
        },
        {
          "internalType": "uint256",
          "name": "warrantyPeriod",
          "type": "uint256"
        },
        {
          "internalType": "string",
          "name": "condition",
          "type": "string"
        },
        {
          "internalType": "string",
          "name": "locationOfRegistration",
          "type": "string"
        },
        {
          "internalType": "bool",
          "name": "isRefurbished",
          "type": "bool"
        }
      ],
      "stateMutability": "view",
      "type": "function"
    },
    {
      "inputs": [
        {
          "internalType": "uint256",
          "name": "_id",
          "type": "uint256"
        },
        {
          "internalType": "string",
          "name": "_details",
          "type": "string"
        },
        {
          "internalType": "string[]",
          "name": "_replacedComponents",
          "type": "string[]"
        },
        {
          "internalType": "string",
          "name": "_technicianName",
          "type": "string"
        },
        {
          "internalType": "string",
          "name": "_certificateHash",
          "type": "string"
        },
        {
          "internalType": "uint256",
          "name": "_warrantyExtension",
          "type": "uint256"
        },
        {
          "internalType": "uint256",
          "name": "_refurbishmentCost",
          "type": "uint256"
        },
        {
          "internalType": "string",
          "name": "_newSerialNumber",
          "type": "string"
        }
      ],
      "name": "refurbishProduct",
      "outputs": [],
      "stateMutability": "nonpayable",
      "type": "function"
    },
    {
      "inputs": [
        {
          "internalType": "string",
          "name": "_name",
          "type": "string"
        },
        {
          "internalType": "string",
          "name": "_category",
          "type": "string"
        },
        {
          "internalType": "string",
          "name": "_manufacturer",
          "type": "string"
        },
        {
          "internalType": "uint256",
          "name": "_manufactureYear",
          "type": "uint256"
        },
        {
          "internalType": "string",
          "name": "_serialNumber",
          "type": "string"
        },
        {
          "internalType": "uint256",
          "name": "_warrantyPeriod",
          "type": "uint256"
        },
        {
          "internalType": "string",
          "name": "_condition",
          "type": "string"
        },
        {
          "internalType": "string",
          "name": "_locationOfRegistration",
          "type": "string"
        }
      ],
      "name": "registerProduct",
      "outputs": [],
      "stateMutability": "nonpayable",
      "type": "function"
    }
  ],
  "bytecode": "0x6080604052348015600f57600080fd5b506120018061001f6000396000f3fe608060405234801561001057600080fd5b50600436106100575760003560e01c80637acc0b201461005c5780639592d78b14610095578063b9db15b4146100b1578063c827dda0146100e1578063e0f6ef87146100fd575b600080fd5b610076600480360381019061007191906110e7565b61011b565b60405161008c9a999897969594939291906111ce565b60405180910390f35b6100af60048036038101906100aa91906114af565b6104ac565b005b6100cb60048036038101906100c691906110e7565b61067f565b6040516100d891906119c2565b60405180910390f35b6100fb60048036038101906100f691906119e4565b610e41565b005b610105610f61565b6040516101129190611b42565b60405180910390f35b600060205280600052604060002060009150905080600001549080600101805461014490611b8c565b80601f016020809104026020016040519081016040528092919081815260200182805461017090611b8c565b80156101bd5780601f10610192576101008083540402835291602001916101bd565b820191906000526020600020905b8154815290600101906020018083116101a057829003601f168201915b5050505050908060020180546101d290611b8c565b80601f01602080910402602001604051908101604052809291908181526020018280546101fe90611b8c565b801561024b5780601f106102205761010080835404028352916020019161024b565b820191906000526020600020905b81548152906001019060200180831161022e57829003601f168201915b50505050509080600301805461026090611b8c565b80601f016020809104026020016040519081016040528092919081815260200182805461028c90611b8c565b80156102d95780601f106102ae576101008083540402835291602001916102d9565b820191906000526020600020905b8154815290600101906020018083116102bc57829003601f168201915b5050505050908060040154908060050180546102f490611b8c565b80601f016020809104026020016040519081016040528092919081815260200182805461032090611b8c565b801561036d5780601f106103425761010080835404028352916020019161036d565b820191906000526020600020905b81548152906001019060200180831161035057829003601f168201915b50505050509080600601549080600701805461038890611b8c565b80601f01602080910402602001604051908101604052809291908181526020018280546103b490611b8c565b80156104015780601f106103d657610100808354040283529160200191610401565b820191906000526020600020905b8154815290600101906020018083116103e457829003601f168201915b50505050509080600801805461041690611b8c565b80601f016020809104026020016040519081016040528092919081815260200182805461044290611b8c565b801561048f5780601f106104645761010080835404028352916020019161048f565b820191906000526020600020905b81548152906001019060200180831161047257829003601f168201915b5050505050908060090160009054906101000a900460ff1690508a565b6000881180156104be57506001548811155b6104fd576040517f08c379a00000000000000000000000000000000000000000000000000000000081526004016104f490611c09565b60405180910390fd5b60016000808a815260200190815260200160002060090160006101000a81548160ff021916908315150217905550600080898152602001908152602001600020600a016040518061010001604052804281526020018981526020018881526020018781526020018681526020018581526020018481526020018381525090806001815401808255809150506001900390600052602060002090600802016000909190919091506000820151816000015560208201518160010190816105c29190611dd5565b5060408201518160020190805190602001906105df929190610f67565b5060608201518160030190816105f59190611dd5565b50608082015181600401908161060b9190611dd5565b5060a0820151816005015560c0820151816006015560e08201518160070190816106359190611dd5565b5050507fe47657ee0a3c8f6e86961c9cf0a96196b0566871fbdc7c9bc8b531f086649b708886864260405161066d9493929190611ea7565b60405180910390a15050505050505050565b610687610fc0565b60008211801561069957506001548211155b6106d8576040517f08c379a00000000000000000000000000000000000000000000000000000000081526004016106cf90611c09565b60405180910390fd5b600080838152602001908152602001600020604051806101600160405290816000820154815260200160018201805461071090611b8c565b80601f016020809104026020016040519081016040528092919081815260200182805461073c90611b8c565b80156107895780601f1061075e57610100808354040283529160200191610789565b820191906000526020600020905b81548152906001019060200180831161076c57829003601f168201915b505050505081526020016002820180546107a290611b8c565b80601f01602080910402602001604051908101604052809291908181526020018280546107ce90611b8c565b801561081b5780601f106107f05761010080835404028352916020019161081b565b820191906000526020600020905b8154815290600101906020018083116107fe57829003601f168201915b5050505050815260200160038201805461083490611b8c565b80601f016020809104026020016040519081016040528092919081815260200182805461086090611b8c565b80156108ad5780601f10610882576101008083540402835291602001916108ad565b820191906000526020600020905b81548152906001019060200180831161089057829003601f168201915b50505050508152602001600482015481526020016005820180546108d090611b8c565b80601f01602080910402602001604051908101604052809291908181526020018280546108fc90611b8c565b80156109495780601f1061091e57610100808354040283529160200191610949565b820191906000526020600020905b81548152906001019060200180831161092c57829003601f168201915b505050505081526020016006820154815260200160078201805461096c90611b8c565b80601f016020809104026020016040519081016040528092919081815260200182805461099890611b8c565b80156109e55780601f106109ba576101008083540402835291602001916109e5565b820191906000526020600020905b8154815290600101906020018083116109c857829003601f168201915b505050505081526020016008820180546109fe90611b8c565b80601f0160208091040260200160405190810160405280929190818152602001828054610a2a90611b8c565b8015610a775780601f10610a4c57610100808354040283529160200191610a77565b820191906000526020600020905b815481529060010190602001808311610a5a57829003601f168201915b505050505081526020016009820160009054906101000a900460ff16151515158152602001600a8201805480602002602001604051908101604052809291908181526020016000905b82821015610e3257838290600052602060002090600802016040518061010001604052908160008201548152602001600182018054610afe90611b8c565b80601f0160208091040260200160405190810160405280929190818152602001828054610b2a90611b8c565b8015610b775780601f10610b4c57610100808354040283529160200191610b77565b820191906000526020600020905b815481529060010190602001808311610b5a57829003601f168201915b5050505050815260200160028201805480602002602001604051908101604052809291908181526020016000905b82821015610c51578382906000526020600020018054610bc490611b8c565b80601f0160208091040260200160405190810160405280929190818152602001828054610bf090611b8c565b8015610c3d5780601f10610c1257610100808354040283529160200191610c3d565b820191906000526020600020905b815481529060010190602001808311610c2057829003601f168201915b505050505081526020019060010190610ba5565b505050508152602001600382018054610c6990611b8c565b80601f0160208091040260200160405190810160405280929190818152602001828054610c9590611b8c565b8015610ce25780601f10610cb757610100808354040283529160200191610ce2565b820191906000526020600020905b815481529060010190602001808311610cc557829003601f168201915b50505050508152602001600482018054610cfb90611b8c565b80601f0160208091040260200160405190810160405280929190818152602001828054610d2790611b8c565b8015610d745780601f10610d4957610100808354040283529160200191610d74565b820191906000526020600020905b815481529060010190602001808311610d5757829003601f168201915b505050505081526020016005820154815260200160068201548152602001600782018054610da190611b8c565b80601f0160208091040260200160405190810160405280929190818152602001828054610dcd90611b8c565b8015610e1a5780601f10610def57610100808354040283529160200191610e1a565b820191906000526020600020905b815481529060010190602001808311610dfd57829003601f168201915b50505050508152505081526020019060010190610ac0565b50505050815250509050919050565b60016000815480929190610e5490611f29565b9190505550600080600060015481526020019081526020016000209050600154816000018190555088816001019081610e8d9190611dd5565b5087816002019081610e9f9190611dd5565b5086816003019081610eb19190611dd5565b5085816004018190555084816005019081610ecc9190611dd5565b5083816006018190555082816007019081610ee79190611dd5565b5081816008019081610ef99190611dd5565b5060008160090160006101000a81548160ff0219169083151502179055507f86338d4bbfb2e1f81114f256672394973406cb52966fa6a9421c6f353d8ab6216001548a8a8a604051610f4e9493929190611f71565b60405180910390a1505050505050505050565b60015481565b828054828255906000526020600020908101928215610faf579160200282015b82811115610fae578251829081610f9e9190611dd5565b5091602001919060010190610f87565b5b509050610fbc919061101c565b5090565b604051806101600160405280600081526020016060815260200160608152602001606081526020016000815260200160608152602001600081526020016060815260200160608152602001600015158152602001606081525090565b5b8082111561103c57600081816110339190611040565b5060010161101d565b5090565b50805461104c90611b8c565b6000825580601f1061105e575061107d565b601f01602090049060005260206000209081019061107c9190611080565b5b50565b5b80821115611099576000816000905550600101611081565b5090565b6000604051905090565b600080fd5b600080fd5b6000819050919050565b6110c4816110b1565b81146110cf57600080fd5b50565b6000813590506110e1816110bb565b92915050565b6000602082840312156110fd576110fc6110a7565b5b600061110b848285016110d2565b91505092915050565b61111d816110b1565b82525050565b600081519050919050565b600082825260208201905092915050565b60005b8381101561115d578082015181840152602081019050611142565b60008484015250505050565b6000601f19601f8301169050919050565b600061118582611123565b61118f818561112e565b935061119f81856020860161113f565b6111a881611169565b840191505092915050565b60008115159050919050565b6111c8816111b3565b82525050565b6000610140820190506111e4600083018d611114565b81810360208301526111f6818c61117a565b9050818103604083015261120a818b61117a565b9050818103606083015261121e818a61117a565b905061122d6080830189611114565b81810360a083015261123f818861117a565b905061124e60c0830187611114565b81810360e0830152611260818661117a565b9050818103610100830152611275818561117a565b90506112856101208301846111bf565b9b9a5050505050505050505050565b600080fd5b600080fd5b7f4e487b7100000000000000000000000000000000000000000000000000000000600052604160045260246000fd5b6112d682611169565b810181811067ffffffffffffffff821117156112f5576112f461129e565b5b80604052505050565b600061130861109d565b905061131482826112cd565b919050565b600067ffffffffffffffff8211156113345761133361129e565b5b61133d82611169565b9050602081019050919050565b82818337600083830152505050565b600061136c61136784611319565b6112fe565b90508281526020810184848401111561138857611387611299565b5b61139384828561134a565b509392505050565b600082601f8301126113b0576113af611294565b5b81356113c0848260208601611359565b91505092915050565b600067ffffffffffffffff8211156113e4576113e361129e565b5b602082029050602081019050919050565b600080fd5b600061140d611408846113c9565b6112fe565b905080838252602082019050602084028301858111156114305761142f6113f5565b5b835b8181101561147757803567ffffffffffffffff81111561145557611454611294565b5b808601611462898261139b565b85526020850194505050602081019050611432565b5050509392505050565b600082601f83011261149657611495611294565b5b81356114a68482602086016113fa565b91505092915050565b600080600080600080600080610100898b0312156114d0576114cf6110a7565b5b60006114de8b828c016110d2565b985050602089013567ffffffffffffffff8111156114ff576114fe6110ac565b5b61150b8b828c0161139b565b975050604089013567ffffffffffffffff81111561152c5761152b6110ac565b5b6115388b828c01611481565b965050606089013567ffffffffffffffff811115611559576115586110ac565b5b6115658b828c0161139b565b955050608089013567ffffffffffffffff811115611586576115856110ac565b5b6115928b828c0161139b565b94505060a06115a38b828c016110d2565b93505060c06115b48b828c016110d2565b92505060e089013567ffffffffffffffff8111156115d5576115d46110ac565b5b6115e18b828c0161139b565b9150509295985092959890939650565b6115fa816110b1565b82525050565b600082825260208201905092915050565b600061161c82611123565b6116268185611600565b935061163681856020860161113f565b61163f81611169565b840191505092915050565b611653816111b3565b82525050565b600081519050919050565b600082825260208201905092915050565b6000819050602082019050919050565b600081519050919050565b600082825260208201905092915050565b6000819050602082019050919050565b60006116bd8383611611565b905092915050565b6000602082019050919050565b60006116dd82611685565b6116e78185611690565b9350836020820285016116f9856116a1565b8060005b85811015611735578484038952815161171685826116b1565b9450611721836116c5565b925060208a019950506001810190506116fd565b50829750879550505050505092915050565b60006101008301600083015161176060008601826115f1565b50602083015184820360208601526117788282611611565b9150506040830151848203604086015261179282826116d2565b915050606083015184820360608601526117ac8282611611565b915050608083015184820360808601526117c68282611611565b91505060a08301516117db60a08601826115f1565b5060c08301516117ee60c08601826115f1565b5060e083015184820360e08601526118068282611611565b9150508091505092915050565b600061181f8383611747565b905092915050565b6000602082019050919050565b600061183f82611659565b6118498185611664565b93508360208202850161185b85611675565b8060005b8581101561189757848403895281516118788582611813565b945061188383611827565b925060208a0199505060018101905061185f565b50829750879550505050505092915050565b6000610160830160008301516118c260008601826115f1565b50602083015184820360208601526118da8282611611565b915050604083015184820360408601526118f48282611611565b9150506060830151848203606086015261190e8282611611565b915050608083015161192360808601826115f1565b5060a083015184820360a086015261193b8282611611565b91505060c083015161195060c08601826115f1565b5060e083015184820360e08601526119688282611611565b9150506101008301518482036101008601526119848282611611565b91505061012083015161199b61012086018261164a565b506101408301518482036101408601526119b58282611834565b9150508091505092915050565b600060208201905081810360008301526119dc81846118a9565b905092915050565b600080600080600080600080610100898b031215611a0557611a046110a7565b5b600089013567ffffffffffffffff811115611a2357611a226110ac565b5b611a2f8b828c0161139b565b985050602089013567ffffffffffffffff811115611a5057611a4f6110ac565b5b611a5c8b828c0161139b565b975050604089013567ffffffffffffffff811115611a7d57611a7c6110ac565b5b611a898b828c0161139b565b9650506060611a9a8b828c016110d2565b955050608089013567ffffffffffffffff811115611abb57611aba6110ac565b5b611ac78b828c0161139b565b94505060a0611ad88b828c016110d2565b93505060c089013567ffffffffffffffff811115611af957611af86110ac565b5b611b058b828c0161139b565b92505060e089013567ffffffffffffffff811115611b2657611b256110ac565b5b611b328b828c0161139b565b9150509295985092959890939650565b6000602082019050611b576000830184611114565b92915050565b7f4e487b7100000000000000000000000000000000000000000000000000000000600052602260045260246000fd5b60006002820490506001821680611ba457607f821691505b602082108103611bb757611bb6611b5d565b5b50919050565b7f496e76616c69642070726f647563742049440000000000000000000000000000600082015250565b6000611bf360128361112e565b9150611bfe82611bbd565b602082019050919050565b60006020820190508181036000830152611c2281611be6565b9050919050565b60008190508160005260206000209050919050565b60006020601f8301049050919050565b600082821b905092915050565b600060088302611c8b7fffffffffffffffffffffffffffffffffffffffffffffffffffffffffffffffff82611c4e565b611c958683611c4e565b95508019841693508086168417925050509392505050565b6000819050919050565b6000611cd2611ccd611cc8846110b1565b611cad565b6110b1565b9050919050565b6000819050919050565b611cec83611cb7565b611d00611cf882611cd9565b848454611c5b565b825550505050565b600090565b611d15611d08565b611d20818484611ce3565b505050565b5b81811015611d4457611d39600082611d0d565b600181019050611d26565b5050565b601f821115611d8957611d5a81611c29565b611d6384611c3e565b81016020851015611d72578190505b611d86611d7e85611c3e565b830182611d25565b50505b505050565b600082821c905092915050565b6000611dac60001984600802611d8e565b1980831691505092915050565b6000611dc58383611d9b565b9150826002028217905092915050565b611dde82611123565b67ffffffffffffffff811115611df757611df661129e565b5b611e018254611b8c565b611e0c828285611d48565b600060209050601f831160018114611e3f5760008415611e2d578287015190505b611e378582611db9565b865550611e9f565b601f198416611e4d86611c29565b60005b82811015611e7557848901518255600182019150602085019450602081019050611e50565b86831015611e925784890151611e8e601f891682611d9b565b8355505b6001600288020188555050505b505050505050565b6000608082019050611ebc6000830187611114565b8181036020830152611ece818661117a565b90508181036040830152611ee2818561117a565b9050611ef16060830184611114565b95945050505050565b7f4e487b7100000000000000000000000000000000000000000000000000000000600052601160045260246000fd5b6000611f34826110b1565b91507fffffffffffffffffffffffffffffffffffffffffffffffffffffffffffffffff8203611f6657611f65611efa565b5b600182019050919050565b6000608082019050611f866000830187611114565b8181036020830152611f98818661117a565b90508181036040830152611fac818561117a565b90508181036060830152611fc0818461117a565b90509594505050505056fea264697066735822122012e2c7594b6a95d11010dc6c51afac9e6d34b91d5b21b8d872d929750f07076664736f6c634300081c0033",
  "linkReferences": {},
  "deployedLinkReferences": {}
}