{
  "_format": "hh-sol-artifact-1",
  "contractName": "ProductLifecycle",
  "sourceName": "contracts/ProductLifecycle.sol",
  "abi": [
    {
      "anonymous": false,
      "inputs": [
        {
          "indexed": true,
          "internalType": "uint256",
          "name": "id",
          "type": "uint256"
        },
        {
          "indexed": false,
          "internalType": "string",
          "name": "technicianName",
          "type": "string"
        }
      ],
      "name": "SmartphoneRefurbished",
      "type": "event"
    },
    {
      "anonymous": false,
      "inputs": [
        {
          "indexed": true,
          "internalType": "uint256",
          "name": "id",
          "type": "uint256"
        },
        {
          "indexed": false,
          "internalType": "string",
          "name": "imeiNumber",
          "type": "string"
        }
      ],
      "name": "SmartphoneRegistered",
      "type": "event"
    },
    {
      "inputs": [
        {
          "internalType": "uint256",
          "name": "_id",
          "type": "uint256"
        }
      ],
      "name": "getRefurbishments",
      "outputs": [
        {
          "components": [
            {
              "internalType": "uint256",
              "name": "timestamp",
              "type": "uint256"
            },
            {
              "internalType": "string",
              "name": "details",
              "type": "string"
            },
            {
              "internalType": "string[]",
              "name": "replacedComponents",
              "type": "string[]"
            },
            {
              "internalType": "string",
              "name": "technicianName",
              "type": "string"
            },
            {
              "internalType": "string",
              "name": "certificateHash",
              "type": "string"
            },
            {
              "internalType": "uint256",
              "name": "warrantyExtension",
              "type": "uint256"
            },
            {
              "internalType": "uint256",
              "name": "refurbishmentCost",
              "type": "uint256"
            },
            {
              "internalType": "string",
              "name": "newSerialNumber",
              "type": "string"
            }
          ],
          "internalType": "struct ProductLifecycle.Refurbishment[]",
          "name": "",
          "type": "tuple[]"
        }
      ],
      "stateMutability": "view",
      "type": "function"
    },
    {
      "inputs": [
        {
          "internalType": "uint256",
          "name": "_id",
          "type": "uint256"
        }
      ],
      "name": "getSmartphone",
      "outputs": [
        {
          "components": [
            {
              "internalType": "uint256",
              "name": "id",
              "type": "uint256"
            },
            {
              "internalType": "string",
              "name": "brand",
              "type": "string"
            },
            {
              "internalType": "string",
              "name": "model",
              "type": "string"
            },
            {
              "internalType": "string",
              "name": "osVersion",
              "type": "string"
            },
            {
              "internalType": "string",
              "name": "imeiNumber",
              "type": "string"
            },
            {
              "internalType": "string",
              "name": "manufactureDate",
              "type": "string"
            },
            {
              "internalType": "string",
              "name": "serialNumber",
              "type": "string"
            },
            {
              "internalType": "uint256",
              "name": "warrantyPeriod",
              "type": "uint256"
            },
            {
              "internalType": "string",
              "name": "condition",
              "type": "string"
            },
            {
              "internalType": "string",
              "name": "locationOfRegistration",
              "type": "string"
            },
            {
              "internalType": "bool",
              "name": "isRefurbished",
              "type": "bool"
            }
          ],
          "internalType": "struct ProductLifecycle.Smartphone",
          "name": "",
          "type": "tuple"
        }
      ],
      "stateMutability": "view",
      "type": "function"
    },
    {
      "inputs": [
        {
          "internalType": "uint256",
          "name": "_id",
          "type": "uint256"
        },
        {
          "internalType": "string",
          "name": "_details",
          "type": "string"
        },
        {
          "internalType": "string[]",
          "name": "_replacedComponents",
          "type": "string[]"
        },
        {
          "internalType": "string",
          "name": "_technicianName",
          "type": "string"
        },
        {
          "internalType": "string",
          "name": "_certificateHash",
          "type": "string"
        },
        {
          "internalType": "uint256",
          "name": "_warrantyExtension",
          "type": "uint256"
        },
        {
          "internalType": "uint256",
          "name": "_refurbishmentCost",
          "type": "uint256"
        },
        {
          "internalType": "string",
          "name": "_newSerialNumber",
          "type": "string"
        }
      ],
      "name": "refurbishSmartphone",
      "outputs": [],
      "stateMutability": "nonpayable",
      "type": "function"
    },
    {
      "inputs": [
        {
          "internalType": "uint256",
          "name": "",
          "type": "uint256"
        },
        {
          "internalType": "uint256",
          "name": "",
          "type": "uint256"
        }
      ],
      "name": "refurbishments",
      "outputs": [
        {
          "internalType": "uint256",
          "name": "timestamp",
          "type": "uint256"
        },
        {
          "internalType": "string",
          "name": "details",
          "type": "string"
        },
        {
          "internalType": "string",
          "name": "technicianName",
          "type": "string"
        },
        {
          "internalType": "string",
          "name": "certificateHash",
          "type": "string"
        },
        {
          "internalType": "uint256",
          "name": "warrantyExtension",
          "type": "uint256"
        },
        {
          "internalType": "uint256",
          "name": "refurbishmentCost",
          "type": "uint256"
        },
        {
          "internalType": "string",
          "name": "newSerialNumber",
          "type": "string"
        }
      ],
      "stateMutability": "view",
      "type": "function"
    },
    {
      "inputs": [
        {
          "internalType": "string",
          "name": "_brand",
          "type": "string"
        },
        {
          "internalType": "string",
          "name": "_model",
          "type": "string"
        },
        {
          "internalType": "string",
          "name": "_osVersion",
          "type": "string"
        },
        {
          "internalType": "string",
          "name": "_imeiNumber",
          "type": "string"
        },
        {
          "internalType": "string",
          "name": "_manufactureDate",
          "type": "string"
        },
        {
          "internalType": "string",
          "name": "_serialNumber",
          "type": "string"
        },
        {
          "internalType": "uint256",
          "name": "_warrantyPeriod",
          "type": "uint256"
        },
        {
          "internalType": "string",
          "name": "_condition",
          "type": "string"
        },
        {
          "internalType": "string",
          "name": "_locationOfRegistration",
          "type": "string"
        }
      ],
      "name": "registerSmartphone",
      "outputs": [],
      "stateMutability": "nonpayable",
      "type": "function"
    },
    {
      "inputs": [],
      "name": "smartphoneCount",
      "outputs": [
        {
          "internalType": "uint256",
          "name": "",
          "type": "uint256"
        }
      ],
      "stateMutability": "view",
      "type": "function"
    },
    {
      "inputs": [
        {
          "internalType": "uint256",
          "name": "",
          "type": "uint256"
        }
      ],
      "name": "smartphones",
      "outputs": [
        {
          "internalType": "uint256",
          "name": "id",
          "type": "uint256"
        },
        {
          "internalType": "string",
          "name": "brand",
          "type": "string"
        },
        {
          "internalType": "string",
          "name": "model",
          "type": "string"
        },
        {
          "internalType": "string",
          "name": "osVersion",
          "type": "string"
        },
        {
          "internalType": "string",
          "name": "imeiNumber",
          "type": "string"
        },
        {
          "internalType": "string",
          "name": "manufactureDate",
          "type": "string"
        },
        {
          "internalType": "string",
          "name": "serialNumber",
          "type": "string"
        },
        {
          "internalType": "uint256",
          "name": "warrantyPeriod",
          "type": "uint256"
        },
        {
          "internalType": "string",
          "name": "condition",
          "type": "string"
        },
        {
          "internalType": "string",
          "name": "locationOfRegistration",
          "type": "string"
        },
        {
          "internalType": "bool",
          "name": "isRefurbished",
          "type": "bool"
        }
      ],
      "stateMutability": "view",
      "type": "function"
    }
  ],
  "bytecode": "0x6080604052348015600f57600080fd5b506128c68061001f6000396000f3fe608060405234801561001057600080fd5b506004361061007d5760003560e01c80639579606e1161005b5780639579606e1461010457806397e35be01461013e5780639ca0626c1461015c578063d6e7fc8f1461018c5761007d565b80633aa8c1e9146100825780634cfe9abe146100b2578063548ac7d3146100ce575b600080fd5b61009c600480360381019061009791906117af565b6101a8565b6040516100a99190611acb565b60405180910390f35b6100cc60048036038101906100c79190611c22565b6105ab565b005b6100e860048036038101906100e39190611dcc565b6107fa565b6040516100fb9796959493929190611e65565b60405180910390f35b61011e600480360381019061011991906117af565b610a79565b6040516101359b9a99989796959493929190611f0b565b60405180910390f35b610146610f20565b6040516101539190611fee565b60405180910390f35b610176600480360381019061017191906117af565b610f26565b6040516101839190612138565b60405180910390f35b6101a660048036038101906101a19190612240565b611463565b005b60606000821180156101bc57506003548211155b6101fb576040517f08c379a00000000000000000000000000000000000000000000000000000000081526004016101f2906123ce565b60405180910390fd5b60016000838152602001908152602001600020805480602002602001604051908101604052809291908181526020016000905b828210156105a05783829060005260206000209060080201604051806101000160405290816000820154815260200160018201805461026c9061241d565b80601f01602080910402602001604051908101604052809291908181526020018280546102989061241d565b80156102e55780601f106102ba576101008083540402835291602001916102e5565b820191906000526020600020905b8154815290600101906020018083116102c857829003601f168201915b5050505050815260200160028201805480602002602001604051908101604052809291908181526020016000905b828210156103bf5783829060005260206000200180546103329061241d565b80601f016020809104026020016040519081016040528092919081815260200182805461035e9061241d565b80156103ab5780601f10610380576101008083540402835291602001916103ab565b820191906000526020600020905b81548152906001019060200180831161038e57829003601f168201915b505050505081526020019060010190610313565b5050505081526020016003820180546103d79061241d565b80601f01602080910402602001604051908101604052809291908181526020018280546104039061241d565b80156104505780601f1061042557610100808354040283529160200191610450565b820191906000526020600020905b81548152906001019060200180831161043357829003601f168201915b505050505081526020016004820180546104699061241d565b80601f01602080910402602001604051908101604052809291908181526020018280546104959061241d565b80156104e25780601f106104b7576101008083540402835291602001916104e2565b820191906000526020600020905b8154815290600101906020018083116104c557829003601f168201915b50505050508152602001600582015481526020016006820154815260200160078201805461050f9061241d565b80601f016020809104026020016040519081016040528092919081815260200182805461053b9061241d565b80156105885780601f1061055d57610100808354040283529160200191610588565b820191906000526020600020905b81548152906001019060200180831161056b57829003601f168201915b5050505050815250508152602001906001019061022e565b505050509050919050565b6002866040516105bb919061248a565b908152602001604051809103902060009054906101000a900460ff1615610617576040517f08c379a000000000000000000000000000000000000000000000000000000000815260040161060e906124ed565b60405180910390fd5b6003600081548092919061062a9061253c565b919050555060405180610160016040528060035481526020018a81526020018981526020018881526020018781526020018681526020018581526020018481526020018381526020018281526020016000151581525060008060035481526020019081526020016000206000820151816000015560208201518160010190816106b39190612730565b5060408201518160020190816106c99190612730565b5060608201518160030190816106df9190612730565b5060808201518160040190816106f59190612730565b5060a082015181600501908161070b9190612730565b5060c08201518160060190816107219190612730565b5060e082015181600701556101008201518160080190816107429190612730565b506101208201518160090190816107599190612730565b5061014082015181600a0160006101000a81548160ff0219169083151502179055509050506001600287604051610790919061248a565b908152602001604051809103902060006101000a81548160ff0219169083151502179055506003547f7055248320dc668ebf3a83cabeca414cf50bd9fef5477cf460af467275e3e3c2876040516107e79190612802565b60405180910390a2505050505050505050565b6001602052816000526040600020818154811061081657600080fd5b9060005260206000209060080201600091509150508060000154908060010180546108409061241d565b80601f016020809104026020016040519081016040528092919081815260200182805461086c9061241d565b80156108b95780601f1061088e576101008083540402835291602001916108b9565b820191906000526020600020905b81548152906001019060200180831161089c57829003601f168201915b5050505050908060030180546108ce9061241d565b80601f01602080910402602001604051908101604052809291908181526020018280546108fa9061241d565b80156109475780601f1061091c57610100808354040283529160200191610947565b820191906000526020600020905b81548152906001019060200180831161092a57829003601f168201915b50505050509080600401805461095c9061241d565b80601f01602080910402602001604051908101604052809291908181526020018280546109889061241d565b80156109d55780601f106109aa576101008083540402835291602001916109d5565b820191906000526020600020905b8154815290600101906020018083116109b857829003601f168201915b5050505050908060050154908060060154908060070180546109f69061241d565b80601f0160208091040260200160405190810160405280929190818152602001828054610a229061241d565b8015610a6f5780601f10610a4457610100808354040283529160200191610a6f565b820191906000526020600020905b815481529060010190602001808311610a5257829003601f168201915b5050505050905087565b6000602052806000526040600020600091509050806000015490806001018054610aa29061241d565b80601f0160208091040260200160405190810160405280929190818152602001828054610ace9061241d565b8015610b1b5780601f10610af057610100808354040283529160200191610b1b565b820191906000526020600020905b815481529060010190602001808311610afe57829003601f168201915b505050505090806002018054610b309061241d565b80601f0160208091040260200160405190810160405280929190818152602001828054610b5c9061241d565b8015610ba95780601f10610b7e57610100808354040283529160200191610ba9565b820191906000526020600020905b815481529060010190602001808311610b8c57829003601f168201915b505050505090806003018054610bbe9061241d565b80601f0160208091040260200160405190810160405280929190818152602001828054610bea9061241d565b8015610c375780601f10610c0c57610100808354040283529160200191610c37565b820191906000526020600020905b815481529060010190602001808311610c1a57829003601f168201915b505050505090806004018054610c4c9061241d565b80601f0160208091040260200160405190810160405280929190818152602001828054610c789061241d565b8015610cc55780601f10610c9a57610100808354040283529160200191610cc5565b820191906000526020600020905b815481529060010190602001808311610ca857829003601f168201915b505050505090806005018054610cda9061241d565b80601f0160208091040260200160405190810160405280929190818152602001828054610d069061241d565b8015610d535780601f10610d2857610100808354040283529160200191610d53565b820191906000526020600020905b815481529060010190602001808311610d3657829003601f168201915b505050505090806006018054610d689061241d565b80601f0160208091040260200160405190810160405280929190818152602001828054610d949061241d565b8015610de15780601f10610db657610100808354040283529160200191610de1565b820191906000526020600020905b815481529060010190602001808311610dc457829003601f168201915b505050505090806007015490806008018054610dfc9061241d565b80601f0160208091040260200160405190810160405280929190818152602001828054610e289061241d565b8015610e755780601f10610e4a57610100808354040283529160200191610e75565b820191906000526020600020905b815481529060010190602001808311610e5857829003601f168201915b505050505090806009018054610e8a9061241d565b80601f0160208091040260200160405190810160405280929190818152602001828054610eb69061241d565b8015610f035780601f10610ed857610100808354040283529160200191610f03565b820191906000526020600020905b815481529060010190602001808311610ee657829003601f168201915b50505050509080600a0160009054906101000a900460ff1690508b565b60035481565b610f2e61162f565b600082118015610f4057506003548211155b610f7f576040517f08c379a0000000000000000000000000000000000000000000000000000000008152600401610f76906123ce565b60405180910390fd5b6000808381526020019081526020016000206040518061016001604052908160008201548152602001600182018054610fb79061241d565b80601f0160208091040260200160405190810160405280929190818152602001828054610fe39061241d565b80156110305780601f1061100557610100808354040283529160200191611030565b820191906000526020600020905b81548152906001019060200180831161101357829003601f168201915b505050505081526020016002820180546110499061241d565b80601f01602080910402602001604051908101604052809291908181526020018280546110759061241d565b80156110c25780601f10611097576101008083540402835291602001916110c2565b820191906000526020600020905b8154815290600101906020018083116110a557829003601f168201915b505050505081526020016003820180546110db9061241d565b80601f01602080910402602001604051908101604052809291908181526020018280546111079061241d565b80156111545780601f1061112957610100808354040283529160200191611154565b820191906000526020600020905b81548152906001019060200180831161113757829003601f168201915b5050505050815260200160048201805461116d9061241d565b80601f01602080910402602001604051908101604052809291908181526020018280546111999061241d565b80156111e65780601f106111bb576101008083540402835291602001916111e6565b820191906000526020600020905b8154815290600101906020018083116111c957829003601f168201915b505050505081526020016005820180546111ff9061241d565b80601f016020809104026020016040519081016040528092919081815260200182805461122b9061241d565b80156112785780601f1061124d57610100808354040283529160200191611278565b820191906000526020600020905b81548152906001019060200180831161125b57829003601f168201915b505050505081526020016006820180546112919061241d565b80601f01602080910402602001604051908101604052809291908181526020018280546112bd9061241d565b801561130a5780601f106112df5761010080835404028352916020019161130a565b820191906000526020600020905b8154815290600101906020018083116112ed57829003601f168201915b505050505081526020016007820154815260200160088201805461132d9061241d565b80601f01602080910402602001604051908101604052809291908181526020018280546113599061241d565b80156113a65780601f1061137b576101008083540402835291602001916113a6565b820191906000526020600020905b81548152906001019060200180831161138957829003601f168201915b505050505081526020016009820180546113bf9061241d565b80601f01602080910402602001604051908101604052809291908181526020018280546113eb9061241d565b80156114385780601f1061140d57610100808354040283529160200191611438565b820191906000526020600020905b81548152906001019060200180831161141b57829003601f168201915b50505050508152602001600a820160009054906101000a900460ff1615151515815250509050919050565b60008811801561147557506003548811155b6114b4576040517f08c379a00000000000000000000000000000000000000000000000000000000081526004016114ab90612870565b60405180910390fd5b60016000808a8152602001908152602001600020600a0160006101000a81548160ff021916908315150217905550600160008981526020019081526020016000206040518061010001604052804281526020018981526020018881526020018781526020018681526020018581526020018481526020018381525090806001815401808255809150506001900390600052602060002090600802016000909190919091506000820151816000015560208201518160010190816115779190612730565b50604082015181600201908051906020019061159492919061168b565b5060608201518160030190816115aa9190612730565b5060808201518160040190816115c09190612730565b5060a0820151816005015560c0820151816006015560e08201518160070190816115ea9190612730565b505050877fa4b3acf3cf628154b8c1fb2d9cc1ed114bfb74ad370627cb4c16db7ebeb3afcc8660405161161d9190612802565b60405180910390a25050505050505050565b604051806101600160405280600081526020016060815260200160608152602001606081526020016060815260200160608152602001606081526020016000815260200160608152602001606081526020016000151581525090565b8280548282559060005260206000209081019282156116d3579160200282015b828111156116d25782518290816116c29190612730565b50916020019190600101906116ab565b5b5090506116e091906116e4565b5090565b5b8082111561170457600081816116fb9190611708565b506001016116e5565b5090565b5080546117149061241d565b6000825580601f106117265750611745565b601f0160209004906000526020600020908101906117449190611748565b5b50565b5b80821115611761576000816000905550600101611749565b5090565b6000604051905090565b600080fd5b600080fd5b6000819050919050565b61178c81611779565b811461179757600080fd5b50565b6000813590506117a981611783565b92915050565b6000602082840312156117c5576117c461176f565b5b60006117d38482850161179a565b91505092915050565b600081519050919050565b600082825260208201905092915050565b6000819050602082019050919050565b61181181611779565b82525050565b600081519050919050565b600082825260208201905092915050565b60005b83811015611851578082015181840152602081019050611836565b60008484015250505050565b6000601f19601f8301169050919050565b600061187982611817565b6118838185611822565b9350611893818560208601611833565b61189c8161185d565b840191505092915050565b600081519050919050565b600082825260208201905092915050565b6000819050602082019050919050565b60006118df838361186e565b905092915050565b6000602082019050919050565b60006118ff826118a7565b61190981856118b2565b93508360208202850161191b856118c3565b8060005b85811015611957578484038952815161193885826118d3565b9450611943836118e7565b925060208a0199505060018101905061191f565b50829750879550505050505092915050565b6000610100830160008301516119826000860182611808565b506020830151848203602086015261199a828261186e565b915050604083015184820360408601526119b482826118f4565b915050606083015184820360608601526119ce828261186e565b915050608083015184820360808601526119e8828261186e565b91505060a08301516119fd60a0860182611808565b5060c0830151611a1060c0860182611808565b5060e083015184820360e0860152611a28828261186e565b9150508091505092915050565b6000611a418383611969565b905092915050565b6000602082019050919050565b6000611a61826117dc565b611a6b81856117e7565b935083602082028501611a7d856117f8565b8060005b85811015611ab95784840389528151611a9a8582611a35565b9450611aa583611a49565b925060208a01995050600181019050611a81565b50829750879550505050505092915050565b60006020820190508181036000830152611ae58184611a56565b905092915050565b600080fd5b600080fd5b7f4e487b7100000000000000000000000000000000000000000000000000000000600052604160045260246000fd5b611b2f8261185d565b810181811067ffffffffffffffff82111715611b4e57611b4d611af7565b5b80604052505050565b6000611b61611765565b9050611b6d8282611b26565b919050565b600067ffffffffffffffff821115611b8d57611b8c611af7565b5b611b968261185d565b9050602081019050919050565b82818337600083830152505050565b6000611bc5611bc084611b72565b611b57565b905082815260208101848484011115611be157611be0611af2565b5b611bec848285611ba3565b509392505050565b600082601f830112611c0957611c08611aed565b5b8135611c19848260208601611bb2565b91505092915050565b60008060008060008060008060006101208a8c031215611c4557611c4461176f565b5b60008a013567ffffffffffffffff811115611c6357611c62611774565b5b611c6f8c828d01611bf4565b99505060208a013567ffffffffffffffff811115611c9057611c8f611774565b5b611c9c8c828d01611bf4565b98505060408a013567ffffffffffffffff811115611cbd57611cbc611774565b5b611cc98c828d01611bf4565b97505060608a013567ffffffffffffffff811115611cea57611ce9611774565b5b611cf68c828d01611bf4565b96505060808a013567ffffffffffffffff811115611d1757611d16611774565b5b611d238c828d01611bf4565b95505060a08a013567ffffffffffffffff811115611d4457611d43611774565b5b611d508c828d01611bf4565b94505060c0611d618c828d0161179a565b93505060e08a013567ffffffffffffffff811115611d8257611d81611774565b5b611d8e8c828d01611bf4565b9250506101008a013567ffffffffffffffff811115611db057611daf611774565b5b611dbc8c828d01611bf4565b9150509295985092959850929598565b60008060408385031215611de357611de261176f565b5b6000611df18582860161179a565b9250506020611e028582860161179a565b9150509250929050565b611e1581611779565b82525050565b600082825260208201905092915050565b6000611e3782611817565b611e418185611e1b565b9350611e51818560208601611833565b611e5a8161185d565b840191505092915050565b600060e082019050611e7a600083018a611e0c565b8181036020830152611e8c8189611e2c565b90508181036040830152611ea08188611e2c565b90508181036060830152611eb48187611e2c565b9050611ec36080830186611e0c565b611ed060a0830185611e0c565b81810360c0830152611ee28184611e2c565b905098975050505050505050565b60008115159050919050565b611f0581611ef0565b82525050565b600061016082019050611f21600083018e611e0c565b8181036020830152611f33818d611e2c565b90508181036040830152611f47818c611e2c565b90508181036060830152611f5b818b611e2c565b90508181036080830152611f6f818a611e2c565b905081810360a0830152611f838189611e2c565b905081810360c0830152611f978188611e2c565b9050611fa660e0830187611e0c565b818103610100830152611fb98186611e2c565b9050818103610120830152611fce8185611e2c565b9050611fde610140830184611efc565b9c9b505050505050505050505050565b60006020820190506120036000830184611e0c565b92915050565b61201281611ef0565b82525050565b6000610160830160008301516120316000860182611808565b5060208301518482036020860152612049828261186e565b91505060408301518482036040860152612063828261186e565b9150506060830151848203606086015261207d828261186e565b91505060808301518482036080860152612097828261186e565b91505060a083015184820360a08601526120b1828261186e565b91505060c083015184820360c08601526120cb828261186e565b91505060e08301516120e060e0860182611808565b506101008301518482036101008601526120fa828261186e565b915050610120830151848203610120860152612116828261186e565b91505061014083015161212d610140860182612009565b508091505092915050565b600060208201905081810360008301526121528184612018565b905092915050565b600067ffffffffffffffff82111561217557612174611af7565b5b602082029050602081019050919050565b600080fd5b600061219e6121998461215a565b611b57565b905080838252602082019050602084028301858111156121c1576121c0612186565b5b835b8181101561220857803567ffffffffffffffff8111156121e6576121e5611aed565b5b8086016121f38982611bf4565b855260208501945050506020810190506121c3565b5050509392505050565b600082601f83011261222757612226611aed565b5b813561223784826020860161218b565b91505092915050565b600080600080600080600080610100898b0312156122615761226061176f565b5b600061226f8b828c0161179a565b985050602089013567ffffffffffffffff8111156122905761228f611774565b5b61229c8b828c01611bf4565b975050604089013567ffffffffffffffff8111156122bd576122bc611774565b5b6122c98b828c01612212565b965050606089013567ffffffffffffffff8111156122ea576122e9611774565b5b6122f68b828c01611bf4565b955050608089013567ffffffffffffffff81111561231757612316611774565b5b6123238b828c01611bf4565b94505060a06123348b828c0161179a565b93505060c06123458b828c0161179a565b92505060e089013567ffffffffffffffff81111561236657612365611774565b5b6123728b828c01611bf4565b9150509295985092959890939650565b7f536d61727470686f6e65206e6f7420666f756e64000000000000000000000000600082015250565b60006123b8601483611e1b565b91506123c382612382565b602082019050919050565b600060208201905081810360008301526123e7816123ab565b9050919050565b7f4e487b7100000000000000000000000000000000000000000000000000000000600052602260045260246000fd5b6000600282049050600182168061243557607f821691505b602082108103612448576124476123ee565b5b50919050565b600081905092915050565b600061246482611817565b61246e818561244e565b935061247e818560208601611833565b80840191505092915050565b60006124968284612459565b915081905092915050565b7f494d454920616c72656164792072656769737465726564000000000000000000600082015250565b60006124d7601783611e1b565b91506124e2826124a1565b602082019050919050565b60006020820190508181036000830152612506816124ca565b9050919050565b7f4e487b7100000000000000000000000000000000000000000000000000000000600052601160045260246000fd5b600061254782611779565b91507fffffffffffffffffffffffffffffffffffffffffffffffffffffffffffffffff82036125795761257861250d565b5b600182019050919050565b60008190508160005260206000209050919050565b60006020601f8301049050919050565b600082821b905092915050565b6000600883026125e67fffffffffffffffffffffffffffffffffffffffffffffffffffffffffffffffff826125a9565b6125f086836125a9565b95508019841693508086168417925050509392505050565b6000819050919050565b600061262d61262861262384611779565b612608565b611779565b9050919050565b6000819050919050565b61264783612612565b61265b61265382612634565b8484546125b6565b825550505050565b600090565b612670612663565b61267b81848461263e565b505050565b5b8181101561269f57612694600082612668565b600181019050612681565b5050565b601f8211156126e4576126b581612584565b6126be84612599565b810160208510156126cd578190505b6126e16126d985612599565b830182612680565b50505b505050565b600082821c905092915050565b6000612707600019846008026126e9565b1980831691505092915050565b600061272083836126f6565b9150826002028217905092915050565b61273982611817565b67ffffffffffffffff81111561275257612751611af7565b5b61275c825461241d565b6127678282856126a3565b600060209050601f83116001811461279a5760008415612788578287015190505b6127928582612714565b8655506127fa565b601f1984166127a886612584565b60005b828110156127d0578489015182556001820191506020850194506020810190506127ab565b868310156127ed57848901516127e9601f8916826126f6565b8355505b6001600288020188555050505b505050505050565b6000602082019050818103600083015261281c8184611e2c565b905092915050565b7f496e76616c696420736d61727470686f6e652049440000000000000000000000600082015250565b600061285a601583611e1b565b915061286582612824565b602082019050919050565b600060208201905081810360008301526128898161284d565b905091905056fea26469706673582212205bf674913bcdc436832decc4d2b7e1fb855b08239e000009c015b71ccb1b5fcf64736f6c634300081c0033",
  "linkReferences": {},
  "deployedLinkReferences": {}
}