{
  "_format": "hh-sol-artifact-1",
  "contractName": "ProductLifecycle",
  "sourceName": "contracts/ProductLifecycle.sol",
  "abi": [
    {
      "anonymous": false,
      "inputs": [
        {
          "indexed": true,
          "internalType": "uint256",
          "name": "id",
          "type": "uint256"
        },
        {
          "indexed": false,
          "internalType": "string",
          "name": "technicianName",
          "type": "string"
        },
        {
          "indexed": false,
          "internalType": "string",
          "name": "certificateHash",
          "type": "string"
        },
        {
          "indexed": false,
          "internalType": "uint256",
          "name": "timestamp",
          "type": "uint256"
        }
      ],
      "name": "ProductRefurbished",
      "type": "event"
    },
    {
      "anonymous": false,
      "inputs": [
        {
          "indexed": true,
          "internalType": "uint256",
          "name": "id",
          "type": "uint256"
        },
        {
          "indexed": false,
          "internalType": "string",
          "name": "name",
          "type": "string"
        },
        {
          "indexed": false,
          "internalType": "string",
          "name": "category",
          "type": "string"
        },
        {
          "indexed": false,
          "internalType": "string",
          "name": "manufacturer",
          "type": "string"
        }
      ],
      "name": "ProductRegistered",
      "type": "event"
    },
    {
      "inputs": [
        {
          "internalType": "uint256",
          "name": "_id",
          "type": "uint256"
        }
      ],
      "name": "getProduct",
      "outputs": [
        {
          "components": [
            {
              "internalType": "uint256",
              "name": "id",
              "type": "uint256"
            },
            {
              "internalType": "string",
              "name": "name",
              "type": "string"
            },
            {
              "internalType": "string",
              "name": "category",
              "type": "string"
            },
            {
              "internalType": "string",
              "name": "manufacturer",
              "type": "string"
            },
            {
              "internalType": "uint256",
              "name": "manufactureYear",
              "type": "uint256"
            },
            {
              "internalType": "string",
              "name": "serialNumber",
              "type": "string"
            },
            {
              "internalType": "uint256",
              "name": "warrantyPeriod",
              "type": "uint256"
            },
            {
              "internalType": "string",
              "name": "condition",
              "type": "string"
            },
            {
              "internalType": "string",
              "name": "locationOfRegistration",
              "type": "string"
            },
            {
              "internalType": "bool",
              "name": "isRefurbished",
              "type": "bool"
            },
            {
              "components": [
                {
                  "internalType": "uint256",
                  "name": "timestamp",
                  "type": "uint256"
                },
                {
                  "internalType": "string",
                  "name": "details",
                  "type": "string"
                },
                {
                  "internalType": "string[]",
                  "name": "replacedComponents",
                  "type": "string[]"
                },
                {
                  "internalType": "string",
                  "name": "technicianName",
                  "type": "string"
                },
                {
                  "internalType": "string",
                  "name": "certificateHash",
                  "type": "string"
                },
                {
                  "internalType": "uint256",
                  "name": "warrantyExtension",
                  "type": "uint256"
                },
                {
                  "internalType": "uint256",
                  "name": "refurbishmentCost",
                  "type": "uint256"
                },
                {
                  "internalType": "string",
                  "name": "newSerialNumber",
                  "type": "string"
                }
              ],
              "internalType": "struct ProductLifecycle.Refurbishment[]",
              "name": "refurbishments",
              "type": "tuple[]"
            }
          ],
          "internalType": "struct ProductLifecycle.Product",
          "name": "",
          "type": "tuple"
        }
      ],
      "stateMutability": "view",
      "type": "function"
    },
    {
      "inputs": [],
      "name": "productCount",
      "outputs": [
        {
          "internalType": "uint256",
          "name": "",
          "type": "uint256"
        }
      ],
      "stateMutability": "view",
      "type": "function"
    },
    {
      "inputs": [
        {
          "internalType": "uint256",
          "name": "",
          "type": "uint256"
        }
      ],
      "name": "products",
      "outputs": [
        {
          "internalType": "uint256",
          "name": "id",
          "type": "uint256"
        },
        {
          "internalType": "string",
          "name": "name",
          "type": "string"
        },
        {
          "internalType": "string",
          "name": "category",
          "type": "string"
        },
        {
          "internalType": "string",
          "name": "manufacturer",
          "type": "string"
        },
        {
          "internalType": "uint256",
          "name": "manufactureYear",
          "type": "uint256"
        },
        {
          "internalType": "string",
          "name": "serialNumber",
          "type": "string"
        },
        {
          "internalType": "uint256",
          "name": "warrantyPeriod",
          "type": "uint256"
        },
        {
          "internalType": "string",
          "name": "condition",
          "type": "string"
        },
        {
          "internalType": "string",
          "name": "locationOfRegistration",
          "type": "string"
        },
        {
          "internalType": "bool",
          "name": "isRefurbished",
          "type": "bool"
        }
      ],
      "stateMutability": "view",
      "type": "function"
    },
    {
      "inputs": [
        {
          "internalType": "uint256",
          "name": "_id",
          "type": "uint256"
        },
        {
          "internalType": "string",
          "name": "_details",
          "type": "string"
        },
        {
          "internalType": "string[]",
          "name": "_replacedComponents",
          "type": "string[]"
        },
        {
          "internalType": "string",
          "name": "_technicianName",
          "type": "string"
        },
        {
          "internalType": "string",
          "name": "_certificateHash",
          "type": "string"
        },
        {
          "internalType": "uint256",
          "name": "_warrantyExtension",
          "type": "uint256"
        },
        {
          "internalType": "uint256",
          "name": "_refurbishmentCost",
          "type": "uint256"
        },
        {
          "internalType": "string",
          "name": "_newSerialNumber",
          "type": "string"
        }
      ],
      "name": "refurbishProduct",
      "outputs": [],
      "stateMutability": "nonpayable",
      "type": "function"
    },
    {
      "inputs": [
        {
          "internalType": "string",
          "name": "_name",
          "type": "string"
        },
        {
          "internalType": "string",
          "name": "_category",
          "type": "string"
        },
        {
          "internalType": "string",
          "name": "_manufacturer",
          "type": "string"
        },
        {
          "internalType": "uint256",
          "name": "_manufactureYear",
          "type": "uint256"
        },
        {
          "internalType": "string",
          "name": "_serialNumber",
          "type": "string"
        },
        {
          "internalType": "uint256",
          "name": "_warrantyPeriod",
          "type": "uint256"
        },
        {
          "internalType": "string",
          "name": "_condition",
          "type": "string"
        },
        {
          "internalType": "string",
          "name": "_locationOfRegistration",
          "type": "string"
        }
      ],
      "name": "registerProduct",
      "outputs": [],
      "stateMutability": "nonpayable",
      "type": "function"
    }
  ],
  "bytecode": "0x6080604052348015600f57600080fd5b50611fe38061001f6000396000f3fe608060405234801561001057600080fd5b50600436106100575760003560e01c80637acc0b201461005c5780639592d78b14610095578063b9db15b4146100b1578063c827dda0146100e1578063e0f6ef87146100fd575b600080fd5b610076600480360381019061007191906110e5565b61011b565b60405161008c9a999897969594939291906111cc565b60405180910390f35b6100af60048036038101906100aa91906114ad565b6104ac565b005b6100cb60048036038101906100c691906110e5565b61067e565b6040516100d891906119c0565b60405180910390f35b6100fb60048036038101906100f691906119e2565b610e40565b005b610105610f5f565b6040516101129190611b40565b60405180910390f35b600060205280600052604060002060009150905080600001549080600101805461014490611b8a565b80601f016020809104026020016040519081016040528092919081815260200182805461017090611b8a565b80156101bd5780601f10610192576101008083540402835291602001916101bd565b820191906000526020600020905b8154815290600101906020018083116101a057829003601f168201915b5050505050908060020180546101d290611b8a565b80601f01602080910402602001604051908101604052809291908181526020018280546101fe90611b8a565b801561024b5780601f106102205761010080835404028352916020019161024b565b820191906000526020600020905b81548152906001019060200180831161022e57829003601f168201915b50505050509080600301805461026090611b8a565b80601f016020809104026020016040519081016040528092919081815260200182805461028c90611b8a565b80156102d95780601f106102ae576101008083540402835291602001916102d9565b820191906000526020600020905b8154815290600101906020018083116102bc57829003601f168201915b5050505050908060040154908060050180546102f490611b8a565b80601f016020809104026020016040519081016040528092919081815260200182805461032090611b8a565b801561036d5780601f106103425761010080835404028352916020019161036d565b820191906000526020600020905b81548152906001019060200180831161035057829003601f168201915b50505050509080600601549080600701805461038890611b8a565b80601f01602080910402602001604051908101604052809291908181526020018280546103b490611b8a565b80156104015780601f106103d657610100808354040283529160200191610401565b820191906000526020600020905b8154815290600101906020018083116103e457829003601f168201915b50505050509080600801805461041690611b8a565b80601f016020809104026020016040519081016040528092919081815260200182805461044290611b8a565b801561048f5780601f106104645761010080835404028352916020019161048f565b820191906000526020600020905b81548152906001019060200180831161047257829003601f168201915b5050505050908060090160009054906101000a900460ff1690508a565b6000881180156104be57506001548811155b6104fd576040517f08c379a00000000000000000000000000000000000000000000000000000000081526004016104f490611c07565b60405180910390fd5b60016000808a815260200190815260200160002060090160006101000a81548160ff021916908315150217905550600080898152602001908152602001600020600a016040518061010001604052804281526020018981526020018881526020018781526020018681526020018581526020018481526020018381525090806001815401808255809150506001900390600052602060002090600802016000909190919091506000820151816000015560208201518160010190816105c29190611dd3565b5060408201518160020190805190602001906105df929190610f65565b5060608201518160030190816105f59190611dd3565b50608082015181600401908161060b9190611dd3565b5060a0820151816005015560c0820151816006015560e08201518160070190816106359190611dd3565b505050877fe47657ee0a3c8f6e86961c9cf0a96196b0566871fbdc7c9bc8b531f086649b7086864260405161066c93929190611ea5565b60405180910390a25050505050505050565b610686610fbe565b60008211801561069857506001548211155b6106d7576040517f08c379a00000000000000000000000000000000000000000000000000000000081526004016106ce90611c07565b60405180910390fd5b600080838152602001908152602001600020604051806101600160405290816000820154815260200160018201805461070f90611b8a565b80601f016020809104026020016040519081016040528092919081815260200182805461073b90611b8a565b80156107885780601f1061075d57610100808354040283529160200191610788565b820191906000526020600020905b81548152906001019060200180831161076b57829003601f168201915b505050505081526020016002820180546107a190611b8a565b80601f01602080910402602001604051908101604052809291908181526020018280546107cd90611b8a565b801561081a5780601f106107ef5761010080835404028352916020019161081a565b820191906000526020600020905b8154815290600101906020018083116107fd57829003601f168201915b5050505050815260200160038201805461083390611b8a565b80601f016020809104026020016040519081016040528092919081815260200182805461085f90611b8a565b80156108ac5780601f10610881576101008083540402835291602001916108ac565b820191906000526020600020905b81548152906001019060200180831161088f57829003601f168201915b50505050508152602001600482015481526020016005820180546108cf90611b8a565b80601f01602080910402602001604051908101604052809291908181526020018280546108fb90611b8a565b80156109485780601f1061091d57610100808354040283529160200191610948565b820191906000526020600020905b81548152906001019060200180831161092b57829003601f168201915b505050505081526020016006820154815260200160078201805461096b90611b8a565b80601f016020809104026020016040519081016040528092919081815260200182805461099790611b8a565b80156109e45780601f106109b9576101008083540402835291602001916109e4565b820191906000526020600020905b8154815290600101906020018083116109c757829003601f168201915b505050505081526020016008820180546109fd90611b8a565b80601f0160208091040260200160405190810160405280929190818152602001828054610a2990611b8a565b8015610a765780601f10610a4b57610100808354040283529160200191610a76565b820191906000526020600020905b815481529060010190602001808311610a5957829003601f168201915b505050505081526020016009820160009054906101000a900460ff16151515158152602001600a8201805480602002602001604051908101604052809291908181526020016000905b82821015610e3157838290600052602060002090600802016040518061010001604052908160008201548152602001600182018054610afd90611b8a565b80601f0160208091040260200160405190810160405280929190818152602001828054610b2990611b8a565b8015610b765780601f10610b4b57610100808354040283529160200191610b76565b820191906000526020600020905b815481529060010190602001808311610b5957829003601f168201915b5050505050815260200160028201805480602002602001604051908101604052809291908181526020016000905b82821015610c50578382906000526020600020018054610bc390611b8a565b80601f0160208091040260200160405190810160405280929190818152602001828054610bef90611b8a565b8015610c3c5780601f10610c1157610100808354040283529160200191610c3c565b820191906000526020600020905b815481529060010190602001808311610c1f57829003601f168201915b505050505081526020019060010190610ba4565b505050508152602001600382018054610c6890611b8a565b80601f0160208091040260200160405190810160405280929190818152602001828054610c9490611b8a565b8015610ce15780601f10610cb657610100808354040283529160200191610ce1565b820191906000526020600020905b815481529060010190602001808311610cc457829003601f168201915b50505050508152602001600482018054610cfa90611b8a565b80601f0160208091040260200160405190810160405280929190818152602001828054610d2690611b8a565b8015610d735780601f10610d4857610100808354040283529160200191610d73565b820191906000526020600020905b815481529060010190602001808311610d5657829003601f168201915b505050505081526020016005820154815260200160068201548152602001600782018054610da090611b8a565b80601f0160208091040260200160405190810160405280929190818152602001828054610dcc90611b8a565b8015610e195780601f10610dee57610100808354040283529160200191610e19565b820191906000526020600020905b815481529060010190602001808311610dfc57829003601f168201915b50505050508152505081526020019060010190610abf565b50505050815250509050919050565b60016000815480929190610e5390611f19565b9190505550600080600060015481526020019081526020016000209050600154816000018190555088816001019081610e8c9190611dd3565b5087816002019081610e9e9190611dd3565b5086816003019081610eb09190611dd3565b5085816004018190555084816005019081610ecb9190611dd3565b5083816006018190555082816007019081610ee69190611dd3565b5081816008019081610ef89190611dd3565b5060008160090160006101000a81548160ff0219169083151502179055506001547f86338d4bbfb2e1f81114f256672394973406cb52966fa6a9421c6f353d8ab6218a8a8a604051610f4c93929190611f61565b60405180910390a2505050505050505050565b60015481565b828054828255906000526020600020908101928215610fad579160200282015b82811115610fac578251829081610f9c9190611dd3565b5091602001919060010190610f85565b5b509050610fba919061101a565b5090565b604051806101600160405280600081526020016060815260200160608152602001606081526020016000815260200160608152602001600081526020016060815260200160608152602001600015158152602001606081525090565b5b8082111561103a5760008181611031919061103e565b5060010161101b565b5090565b50805461104a90611b8a565b6000825580601f1061105c575061107b565b601f01602090049060005260206000209081019061107a919061107e565b5b50565b5b8082111561109757600081600090555060010161107f565b5090565b6000604051905090565b600080fd5b600080fd5b6000819050919050565b6110c2816110af565b81146110cd57600080fd5b50565b6000813590506110df816110b9565b92915050565b6000602082840312156110fb576110fa6110a5565b5b6000611109848285016110d0565b91505092915050565b61111b816110af565b82525050565b600081519050919050565b600082825260208201905092915050565b60005b8381101561115b578082015181840152602081019050611140565b60008484015250505050565b6000601f19601f8301169050919050565b600061118382611121565b61118d818561112c565b935061119d81856020860161113d565b6111a681611167565b840191505092915050565b60008115159050919050565b6111c6816111b1565b82525050565b6000610140820190506111e2600083018d611112565b81810360208301526111f4818c611178565b90508181036040830152611208818b611178565b9050818103606083015261121c818a611178565b905061122b6080830189611112565b81810360a083015261123d8188611178565b905061124c60c0830187611112565b81810360e083015261125e8186611178565b90508181036101008301526112738185611178565b90506112836101208301846111bd565b9b9a5050505050505050505050565b600080fd5b600080fd5b7f4e487b7100000000000000000000000000000000000000000000000000000000600052604160045260246000fd5b6112d482611167565b810181811067ffffffffffffffff821117156112f3576112f261129c565b5b80604052505050565b600061130661109b565b905061131282826112cb565b919050565b600067ffffffffffffffff8211156113325761133161129c565b5b61133b82611167565b9050602081019050919050565b82818337600083830152505050565b600061136a61136584611317565b6112fc565b90508281526020810184848401111561138657611385611297565b5b611391848285611348565b509392505050565b600082601f8301126113ae576113ad611292565b5b81356113be848260208601611357565b91505092915050565b600067ffffffffffffffff8211156113e2576113e161129c565b5b602082029050602081019050919050565b600080fd5b600061140b611406846113c7565b6112fc565b9050808382526020820190506020840283018581111561142e5761142d6113f3565b5b835b8181101561147557803567ffffffffffffffff81111561145357611452611292565b5b8086016114608982611399565b85526020850194505050602081019050611430565b5050509392505050565b600082601f83011261149457611493611292565b5b81356114a48482602086016113f8565b91505092915050565b600080600080600080600080610100898b0312156114ce576114cd6110a5565b5b60006114dc8b828c016110d0565b985050602089013567ffffffffffffffff8111156114fd576114fc6110aa565b5b6115098b828c01611399565b975050604089013567ffffffffffffffff81111561152a576115296110aa565b5b6115368b828c0161147f565b965050606089013567ffffffffffffffff811115611557576115566110aa565b5b6115638b828c01611399565b955050608089013567ffffffffffffffff811115611584576115836110aa565b5b6115908b828c01611399565b94505060a06115a18b828c016110d0565b93505060c06115b28b828c016110d0565b92505060e089013567ffffffffffffffff8111156115d3576115d26110aa565b5b6115df8b828c01611399565b9150509295985092959890939650565b6115f8816110af565b82525050565b600082825260208201905092915050565b600061161a82611121565b61162481856115fe565b935061163481856020860161113d565b61163d81611167565b840191505092915050565b611651816111b1565b82525050565b600081519050919050565b600082825260208201905092915050565b6000819050602082019050919050565b600081519050919050565b600082825260208201905092915050565b6000819050602082019050919050565b60006116bb838361160f565b905092915050565b6000602082019050919050565b60006116db82611683565b6116e5818561168e565b9350836020820285016116f78561169f565b8060005b85811015611733578484038952815161171485826116af565b945061171f836116c3565b925060208a019950506001810190506116fb565b50829750879550505050505092915050565b60006101008301600083015161175e60008601826115ef565b5060208301518482036020860152611776828261160f565b9150506040830151848203604086015261179082826116d0565b915050606083015184820360608601526117aa828261160f565b915050608083015184820360808601526117c4828261160f565b91505060a08301516117d960a08601826115ef565b5060c08301516117ec60c08601826115ef565b5060e083015184820360e0860152611804828261160f565b9150508091505092915050565b600061181d8383611745565b905092915050565b6000602082019050919050565b600061183d82611657565b6118478185611662565b93508360208202850161185985611673565b8060005b8581101561189557848403895281516118768582611811565b945061188183611825565b925060208a0199505060018101905061185d565b50829750879550505050505092915050565b6000610160830160008301516118c060008601826115ef565b50602083015184820360208601526118d8828261160f565b915050604083015184820360408601526118f2828261160f565b9150506060830151848203606086015261190c828261160f565b915050608083015161192160808601826115ef565b5060a083015184820360a0860152611939828261160f565b91505060c083015161194e60c08601826115ef565b5060e083015184820360e0860152611966828261160f565b915050610100830151848203610100860152611982828261160f565b915050610120830151611999610120860182611648565b506101408301518482036101408601526119b38282611832565b9150508091505092915050565b600060208201905081810360008301526119da81846118a7565b905092915050565b600080600080600080600080610100898b031215611a0357611a026110a5565b5b600089013567ffffffffffffffff811115611a2157611a206110aa565b5b611a2d8b828c01611399565b985050602089013567ffffffffffffffff811115611a4e57611a4d6110aa565b5b611a5a8b828c01611399565b975050604089013567ffffffffffffffff811115611a7b57611a7a6110aa565b5b611a878b828c01611399565b9650506060611a988b828c016110d0565b955050608089013567ffffffffffffffff811115611ab957611ab86110aa565b5b611ac58b828c01611399565b94505060a0611ad68b828c016110d0565b93505060c089013567ffffffffffffffff811115611af757611af66110aa565b5b611b038b828c01611399565b92505060e089013567ffffffffffffffff811115611b2457611b236110aa565b5b611b308b828c01611399565b9150509295985092959890939650565b6000602082019050611b556000830184611112565b92915050565b7f4e487b7100000000000000000000000000000000000000000000000000000000600052602260045260246000fd5b60006002820490506001821680611ba257607f821691505b602082108103611bb557611bb4611b5b565b5b50919050565b7f496e76616c69642070726f647563742049440000000000000000000000000000600082015250565b6000611bf160128361112c565b9150611bfc82611bbb565b602082019050919050565b60006020820190508181036000830152611c2081611be4565b9050919050565b60008190508160005260206000209050919050565b60006020601f8301049050919050565b600082821b905092915050565b600060088302611c897fffffffffffffffffffffffffffffffffffffffffffffffffffffffffffffffff82611c4c565b611c938683611c4c565b95508019841693508086168417925050509392505050565b6000819050919050565b6000611cd0611ccb611cc6846110af565b611cab565b6110af565b9050919050565b6000819050919050565b611cea83611cb5565b611cfe611cf682611cd7565b848454611c59565b825550505050565b600090565b611d13611d06565b611d1e818484611ce1565b505050565b5b81811015611d4257611d37600082611d0b565b600181019050611d24565b5050565b601f821115611d8757611d5881611c27565b611d6184611c3c565b81016020851015611d70578190505b611d84611d7c85611c3c565b830182611d23565b50505b505050565b600082821c905092915050565b6000611daa60001984600802611d8c565b1980831691505092915050565b6000611dc38383611d99565b9150826002028217905092915050565b611ddc82611121565b67ffffffffffffffff811115611df557611df461129c565b5b611dff8254611b8a565b611e0a828285611d46565b600060209050601f831160018114611e3d5760008415611e2b578287015190505b611e358582611db7565b865550611e9d565b601f198416611e4b86611c27565b60005b82811015611e7357848901518255600182019150602085019450602081019050611e4e565b86831015611e905784890151611e8c601f891682611d99565b8355505b6001600288020188555050505b505050505050565b60006060820190508181036000830152611ebf8186611178565b90508181036020830152611ed38185611178565b9050611ee26040830184611112565b949350505050565b7f4e487b7100000000000000000000000000000000000000000000000000000000600052601160045260246000fd5b6000611f24826110af565b91507fffffffffffffffffffffffffffffffffffffffffffffffffffffffffffffffff8203611f5657611f55611eea565b5b600182019050919050565b60006060820190508181036000830152611f7b8186611178565b90508181036020830152611f8f8185611178565b90508181036040830152611fa38184611178565b905094935050505056fea264697066735822122086ba760ea282aa673e0924684b2dd8d13e28905dc54548e0f9d77a0c9ebb5b0164736f6c634300081c0033",
  "linkReferences": {},
  "deployedLinkReferences": {}
}