{
  "_format": "hh-sol-artifact-1",
  "contractName": "ProductLifecycle",
  "sourceName": "contracts/ProductLifecycle.sol",
  "abi": [
    {
      "anonymous": false,
      "inputs": [
        {
          "indexed": true,
          "internalType": "uint256",
          "name": "id",
          "type": "uint256"
        }
      ],
      "name": "SmartphoneMarkedAsRefurbished",
      "type": "event"
    },
    {
      "anonymous": false,
      "inputs": [
        {
          "indexed": true,
          "internalType": "uint256",
          "name": "id",
          "type": "uint256"
        },
        {
          "indexed": false,
          "internalType": "string",
          "name": "technicianName",
          "type": "string"
        }
      ],
      "name": "SmartphoneRefurbished",
      "type": "event"
    },
    {
      "anonymous": false,
      "inputs": [
        {
          "indexed": true,
          "internalType": "uint256",
          "name": "id",
          "type": "uint256"
        },
        {
          "indexed": false,
          "internalType": "string",
          "name": "imeiNumber",
          "type": "string"
        }
      ],
      "name": "SmartphoneRegistered",
      "type": "event"
    },
    {
      "anonymous": false,
      "inputs": [
        {
          "indexed": true,
          "internalType": "uint256",
          "name": "id",
          "type": "uint256"
        }
      ],
      "name": "SmartphoneStatusUpdated",
      "type": "event"
    },
    {
      "inputs": [
        {
          "internalType": "uint256",
          "name": "_id",
          "type": "uint256"
        }
      ],
      "name": "getRefurbishments",
      "outputs": [
        {
          "components": [
            {
              "internalType": "uint256",
              "name": "timestamp",
              "type": "uint256"
            },
            {
              "internalType": "string",
              "name": "details",
              "type": "string"
            },
            {
              "internalType": "string",
              "name": "technicianName",
              "type": "string"
            },
            {
              "internalType": "string",
              "name": "certificateHash",
              "type": "string"
            },
            {
              "internalType": "uint256",
              "name": "warrantyExtension",
              "type": "uint256"
            },
            {
              "internalType": "uint256",
              "name": "refurbishmentCost",
              "type": "uint256"
            },
            {
              "internalType": "string",
              "name": "newSerialNumber",
              "type": "string"
            },
            {
              "internalType": "string",
              "name": "softwareUpdateVersion",
              "type": "string"
            },
            {
              "internalType": "bool",
              "name": "batteryReplaced",
              "type": "bool"
            },
            {
              "internalType": "bool",
              "name": "screenReplaced",
              "type": "bool"
            },
            {
              "internalType": "bool",
              "name": "motherboardReplaced",
              "type": "bool"
            },
            {
              "internalType": "string",
              "name": "refurbishmentGrade",
              "type": "string"
            },
            {
              "internalType": "string",
              "name": "physicalCondition",
              "type": "string"
            },
            {
              "internalType": "string[]",
              "name": "replacedComponents",
              "type": "string[]"
            }
          ],
          "internalType": "struct ProductLifecycle.Refurbishment[]",
          "name": "",
          "type": "tuple[]"
        }
      ],
      "stateMutability": "view",
      "type": "function"
    },
    {
      "inputs": [
        {
          "internalType": "uint256",
          "name": "_id",
          "type": "uint256"
        }
      ],
      "name": "getSmartphone",
      "outputs": [
        {
          "components": [
            {
              "internalType": "uint256",
              "name": "id",
              "type": "uint256"
            },
            {
              "internalType": "string",
              "name": "brand",
              "type": "string"
            },
            {
              "internalType": "string",
              "name": "model",
              "type": "string"
            },
            {
              "internalType": "string",
              "name": "osVersion",
              "type": "string"
            },
            {
              "internalType": "string",
              "name": "imeiNumber",
              "type": "string"
            },
            {
              "internalType": "string",
              "name": "manufactureDate",
              "type": "string"
            },
            {
              "internalType": "string",
              "name": "serialNumber",
              "type": "string"
            },
            {
              "internalType": "uint256",
              "name": "warrantyPeriod",
              "type": "uint256"
            },
            {
              "internalType": "string",
              "name": "condition",
              "type": "string"
            },
            {
              "internalType": "string",
              "name": "locationOfRegistration",
              "type": "string"
            },
            {
              "internalType": "bool",
              "name": "isRefurbished",
              "type": "bool"
            }
          ],
          "internalType": "struct ProductLifecycle.Smartphone",
          "name": "",
          "type": "tuple"
        },
        {
          "components": [
            {
              "internalType": "string",
              "name": "batteryHealth",
              "type": "string"
            },
            {
              "internalType": "string",
              "name": "screenCondition",
              "type": "string"
            },
            {
              "internalType": "string",
              "name": "storageCapacity",
              "type": "string"
            },
            {
              "internalType": "string",
              "name": "ramSize",
              "type": "string"
            },
            {
              "internalType": "string",
              "name": "networkStatus",
              "type": "string"
            },
            {
              "internalType": "string",
              "name": "activationStatus",
              "type": "string"
            },
            {
              "internalType": "bool",
              "name": "blacklistStatus",
              "type": "bool"
            },
            {
              "internalType": "string",
              "name": "physicalCondition",
              "type": "string"
            }
          ],
          "internalType": "struct ProductLifecycle.SmartphoneStatus",
          "name": "",
          "type": "tuple"
        }
      ],
      "stateMutability": "view",
      "type": "function"
    },
    {
      "inputs": [
        {
          "internalType": "uint256",
          "name": "_id",
          "type": "uint256"
        }
      ],
      "name": "markAsRefurbished",
      "outputs": [],
      "stateMutability": "nonpayable",
      "type": "function"
    },
    {
      "inputs": [
        {
          "internalType": "uint256",
          "name": "_id",
          "type": "uint256"
        },
        {
          "components": [
            {
              "internalType": "uint256",
              "name": "timestamp",
              "type": "uint256"
            },
            {
              "internalType": "string",
              "name": "details",
              "type": "string"
            },
            {
              "internalType": "string",
              "name": "technicianName",
              "type": "string"
            },
            {
              "internalType": "string",
              "name": "certificateHash",
              "type": "string"
            },
            {
              "internalType": "uint256",
              "name": "warrantyExtension",
              "type": "uint256"
            },
            {
              "internalType": "uint256",
              "name": "refurbishmentCost",
              "type": "uint256"
            },
            {
              "internalType": "string",
              "name": "newSerialNumber",
              "type": "string"
            },
            {
              "internalType": "string",
              "name": "softwareUpdateVersion",
              "type": "string"
            },
            {
              "internalType": "bool",
              "name": "batteryReplaced",
              "type": "bool"
            },
            {
              "internalType": "bool",
              "name": "screenReplaced",
              "type": "bool"
            },
            {
              "internalType": "bool",
              "name": "motherboardReplaced",
              "type": "bool"
            },
            {
              "internalType": "string",
              "name": "refurbishmentGrade",
              "type": "string"
            },
            {
              "internalType": "string",
              "name": "physicalCondition",
              "type": "string"
            },
            {
              "internalType": "string[]",
              "name": "replacedComponents",
              "type": "string[]"
            }
          ],
          "internalType": "struct ProductLifecycle.Refurbishment",
          "name": "_refurbishment",
          "type": "tuple"
        }
      ],
      "name": "refurbishSmartphone",
      "outputs": [],
      "stateMutability": "nonpayable",
      "type": "function"
    },
    {
      "inputs": [
        {
          "internalType": "string",
          "name": "_brand",
          "type": "string"
        },
        {
          "internalType": "string",
          "name": "_model",
          "type": "string"
        },
        {
          "internalType": "string",
          "name": "_osVersion",
          "type": "string"
        },
        {
          "internalType": "string",
          "name": "_imeiNumber",
          "type": "string"
        },
        {
          "internalType": "string",
          "name": "_manufactureDate",
          "type": "string"
        },
        {
          "internalType": "string",
          "name": "_serialNumber",
          "type": "string"
        },
        {
          "internalType": "uint256",
          "name": "_warrantyPeriod",
          "type": "uint256"
        },
        {
          "internalType": "string",
          "name": "_condition",
          "type": "string"
        },
        {
          "internalType": "string",
          "name": "_locationOfRegistration",
          "type": "string"
        }
      ],
      "name": "registerSmartphone",
      "outputs": [],
      "stateMutability": "nonpayable",
      "type": "function"
    },
    {
      "inputs": [
        {
          "internalType": "uint256",
          "name": "_id",
          "type": "uint256"
        },
        {
          "components": [
            {
              "internalType": "string",
              "name": "batteryHealth",
              "type": "string"
            },
            {
              "internalType": "string",
              "name": "screenCondition",
              "type": "string"
            },
            {
              "internalType": "string",
              "name": "storageCapacity",
              "type": "string"
            },
            {
              "internalType": "string",
              "name": "ramSize",
              "type": "string"
            },
            {
              "internalType": "string",
              "name": "networkStatus",
              "type": "string"
            },
            {
              "internalType": "string",
              "name": "activationStatus",
              "type": "string"
            },
            {
              "internalType": "bool",
              "name": "blacklistStatus",
              "type": "bool"
            },
            {
              "internalType": "string",
              "name": "physicalCondition",
              "type": "string"
            }
          ],
          "internalType": "struct ProductLifecycle.SmartphoneStatus",
          "name": "_status",
          "type": "tuple"
        }
      ],
      "name": "setSmartphoneStatus",
      "outputs": [],
      "stateMutability": "nonpayable",
      "type": "function"
    },
    {
      "inputs": [],
      "name": "smartphoneCount",
      "outputs": [
        {
          "internalType": "uint256",
          "name": "",
          "type": "uint256"
        }
      ],
      "stateMutability": "view",
      "type": "function"
    },
    {
      "inputs": [
        {
          "internalType": "uint256",
          "name": "",
          "type": "uint256"
        }
      ],
      "name": "smartphoneStatus",
      "outputs": [
        {
          "internalType": "string",
          "name": "batteryHealth",
          "type": "string"
        },
        {
          "internalType": "string",
          "name": "screenCondition",
          "type": "string"
        },
        {
          "internalType": "string",
          "name": "storageCapacity",
          "type": "string"
        },
        {
          "internalType": "string",
          "name": "ramSize",
          "type": "string"
        },
        {
          "internalType": "string",
          "name": "networkStatus",
          "type": "string"
        },
        {
          "internalType": "string",
          "name": "activationStatus",
          "type": "string"
        },
        {
          "internalType": "bool",
          "name": "blacklistStatus",
          "type": "bool"
        },
        {
          "internalType": "string",
          "name": "physicalCondition",
          "type": "string"
        }
      ],
      "stateMutability": "view",
      "type": "function"
    },
    {
      "inputs": [
        {
          "internalType": "uint256",
          "name": "",
          "type": "uint256"
        }
      ],
      "name": "smartphones",
      "outputs": [
        {
          "internalType": "uint256",
          "name": "id",
          "type": "uint256"
        },
        {
          "internalType": "string",
          "name": "brand",
          "type": "string"
        },
        {
          "internalType": "string",
          "name": "model",
          "type": "string"
        },
        {
          "internalType": "string",
          "name": "osVersion",
          "type": "string"
        },
        {
          "internalType": "string",
          "name": "imeiNumber",
          "type": "string"
        },
        {
          "internalType": "string",
          "name": "manufactureDate",
          "type": "string"
        },
        {
          "internalType": "string",
          "name": "serialNumber",
          "type": "string"
        },
        {
          "internalType": "uint256",
          "name": "warrantyPeriod",
          "type": "uint256"
        },
        {
          "internalType": "string",
          "name": "condition",
          "type": "string"
        },
        {
          "internalType": "string",
          "name": "locationOfRegistration",
          "type": "string"
        },
        {
          "internalType": "bool",
          "name": "isRefurbished",
          "type": "bool"
        }
      ],
      "stateMutability": "view",
      "type": "function"
    }
  ],
  "bytecode": "0x6080604052348015600f57600080fd5b506138498061001f6000396000f3fe608060405234801561001057600080fd5b50600436106100935760003560e01c80639579606e116100665780639579606e1461011c57806397e35be0146101565780639ca0626c146101745780639cd100d5146101a5578063bb07eef4146101dc57610093565b8063148e2543146100985780633aa8c1e9146100b45780634cfe9abe146100e457806380956bff14610100575b600080fd5b6100b260048036038101906100ad919061257a565b6101f8565b005b6100ce60048036038101906100c991906125d6565b61034b565b6040516100db9190612983565b60405180910390f35b6100fe60048036038101906100f991906129a5565b610955565b005b61011a60048036038101906101159190612e63565b610ba4565b005b610136600480360381019061013191906125d6565b610daf565b60405161014d9b9a99989796959493929190612f27565b60405180910390f35b61015e611256565b60405161016b919061300a565b60405180910390f35b61018e600480360381019061018991906125d6565b61125c565b60405161019c92919061321f565b60405180910390f35b6101bf60048036038101906101ba91906125d6565b611be1565b6040516101d3989796959493929190613256565b60405180910390f35b6101f660048036038101906101f191906125d6565b611fee565b005b60008211801561020a57506004548211155b610249576040517f08c379a000000000000000000000000000000000000000000000000000000000815260040161024090613351565b60405180910390fd5b80600160008481526020019081526020016000206000820151816000019081610272919061357d565b506020820151816001019081610288919061357d565b50604082015181600201908161029e919061357d565b5060608201518160030190816102b4919061357d565b5060808201518160040190816102ca919061357d565b5060a08201518160050190816102e0919061357d565b5060c08201518160060160006101000a81548160ff02191690831515021790555060e0820151816007019081610316919061357d565b50905050817f1c2d380f318476319924d1e5f6106772b7942161b4dc587aa6d7a12e26bf0f1c60405160405180910390a25050565b606060008211801561035f57506004548211155b61039e576040517f08c379a00000000000000000000000000000000000000000000000000000000081526004016103959061369b565b60405180910390fd5b60026000838152602001908152602001600020805480602002602001604051908101604052809291908181526020016000905b8282101561094a57838290600052602060002090600c0201604051806101c00160405290816000820154815260200160018201805461040f906133a0565b80601f016020809104026020016040519081016040528092919081815260200182805461043b906133a0565b80156104885780601f1061045d57610100808354040283529160200191610488565b820191906000526020600020905b81548152906001019060200180831161046b57829003601f168201915b505050505081526020016002820180546104a1906133a0565b80601f01602080910402602001604051908101604052809291908181526020018280546104cd906133a0565b801561051a5780601f106104ef5761010080835404028352916020019161051a565b820191906000526020600020905b8154815290600101906020018083116104fd57829003601f168201915b50505050508152602001600382018054610533906133a0565b80601f016020809104026020016040519081016040528092919081815260200182805461055f906133a0565b80156105ac5780601f10610581576101008083540402835291602001916105ac565b820191906000526020600020905b81548152906001019060200180831161058f57829003601f168201915b5050505050815260200160048201548152602001600582015481526020016006820180546105d9906133a0565b80601f0160208091040260200160405190810160405280929190818152602001828054610605906133a0565b80156106525780601f1061062757610100808354040283529160200191610652565b820191906000526020600020905b81548152906001019060200180831161063557829003601f168201915b5050505050815260200160078201805461066b906133a0565b80601f0160208091040260200160405190810160405280929190818152602001828054610697906133a0565b80156106e45780601f106106b9576101008083540402835291602001916106e4565b820191906000526020600020905b8154815290600101906020018083116106c757829003601f168201915b505050505081526020016008820160009054906101000a900460ff161515151581526020016008820160019054906101000a900460ff161515151581526020016008820160029054906101000a900460ff1615151515815260200160098201805461074e906133a0565b80601f016020809104026020016040519081016040528092919081815260200182805461077a906133a0565b80156107c75780601f1061079c576101008083540402835291602001916107c7565b820191906000526020600020905b8154815290600101906020018083116107aa57829003601f168201915b50505050508152602001600a820180546107e0906133a0565b80601f016020809104026020016040519081016040528092919081815260200182805461080c906133a0565b80156108595780601f1061082e57610100808354040283529160200191610859565b820191906000526020600020905b81548152906001019060200180831161083c57829003601f168201915b50505050508152602001600b8201805480602002602001604051908101604052809291908181526020016000905b828210156109335783829060005260206000200180546108a6906133a0565b80601f01602080910402602001604051908101604052809291908181526020018280546108d2906133a0565b801561091f5780601f106108f45761010080835404028352916020019161091f565b820191906000526020600020905b81548152906001019060200180831161090257829003601f168201915b505050505081526020019060010190610887565b5050505081525050815260200190600101906103d1565b505050509050919050565b60038660405161096591906136f7565b908152602001604051809103902060009054906101000a900460ff16156109c1576040517f08c379a00000000000000000000000000000000000000000000000000000000081526004016109b89061375a565b60405180910390fd5b600460008154809291906109d4906137a9565b919050555060405180610160016040528060045481526020018a8152602001898152602001888152602001878152602001868152602001858152602001848152602001838152602001828152602001600015158152506000806004548152602001908152602001600020600082015181600001556020820151816001019081610a5d919061357d565b506040820151816002019081610a73919061357d565b506060820151816003019081610a89919061357d565b506080820151816004019081610a9f919061357d565b5060a0820151816005019081610ab5919061357d565b5060c0820151816006019081610acb919061357d565b5060e08201518160070155610100820151816008019081610aec919061357d565b50610120820151816009019081610b03919061357d565b5061014082015181600a0160006101000a81548160ff0219169083151502179055509050506001600387604051610b3a91906136f7565b908152602001604051809103902060006101000a81548160ff0219169083151502179055506004547f7055248320dc668ebf3a83cabeca414cf50bd9fef5477cf460af467275e3e3c287604051610b9191906137f1565b60405180910390a2505050505050505050565b600082118015610bb657506004548211155b610bf5576040517f08c379a0000000000000000000000000000000000000000000000000000000008152600401610bec90613351565b60405180910390fd5b600260008381526020019081526020016000208190806001815401808255809150506001900390600052602060002090600c0201600090919091909150600082015181600001556020820151816001019081610c51919061357d565b506040820151816002019081610c67919061357d565b506060820151816003019081610c7d919061357d565b506080820151816004015560a0820151816005015560c0820151816006019081610ca7919061357d565b5060e0820151816007019081610cbd919061357d565b506101008201518160080160006101000a81548160ff0219169083151502179055506101208201518160080160016101000a81548160ff0219169083151502179055506101408201518160080160026101000a81548160ff021916908315150217905550610160820151816009019081610d37919061357d565b5061018082015181600a019081610d4e919061357d565b506101a082015181600b019080519060200190610d6c92919061209d565b505050817fa4b3acf3cf628154b8c1fb2d9cc1ed114bfb74ad370627cb4c16db7ebeb3afcc8260400151604051610da391906137f1565b60405180910390a25050565b6000602052806000526040600020600091509050806000015490806001018054610dd8906133a0565b80601f0160208091040260200160405190810160405280929190818152602001828054610e04906133a0565b8015610e515780601f10610e2657610100808354040283529160200191610e51565b820191906000526020600020905b815481529060010190602001808311610e3457829003601f168201915b505050505090806002018054610e66906133a0565b80601f0160208091040260200160405190810160405280929190818152602001828054610e92906133a0565b8015610edf5780601f10610eb457610100808354040283529160200191610edf565b820191906000526020600020905b815481529060010190602001808311610ec257829003601f168201915b505050505090806003018054610ef4906133a0565b80601f0160208091040260200160405190810160405280929190818152602001828054610f20906133a0565b8015610f6d5780601f10610f4257610100808354040283529160200191610f6d565b820191906000526020600020905b815481529060010190602001808311610f5057829003601f168201915b505050505090806004018054610f82906133a0565b80601f0160208091040260200160405190810160405280929190818152602001828054610fae906133a0565b8015610ffb5780601f10610fd057610100808354040283529160200191610ffb565b820191906000526020600020905b815481529060010190602001808311610fde57829003601f168201915b505050505090806005018054611010906133a0565b80601f016020809104026020016040519081016040528092919081815260200182805461103c906133a0565b80156110895780601f1061105e57610100808354040283529160200191611089565b820191906000526020600020905b81548152906001019060200180831161106c57829003601f168201915b50505050509080600601805461109e906133a0565b80601f01602080910402602001604051908101604052809291908181526020018280546110ca906133a0565b80156111175780601f106110ec57610100808354040283529160200191611117565b820191906000526020600020905b8154815290600101906020018083116110fa57829003601f168201915b505050505090806007015490806008018054611132906133a0565b80601f016020809104026020016040519081016040528092919081815260200182805461115e906133a0565b80156111ab5780601f10611180576101008083540402835291602001916111ab565b820191906000526020600020905b81548152906001019060200180831161118e57829003601f168201915b5050505050908060090180546111c0906133a0565b80601f01602080910402602001604051908101604052809291908181526020018280546111ec906133a0565b80156112395780601f1061120e57610100808354040283529160200191611239565b820191906000526020600020905b81548152906001019060200180831161121c57829003601f168201915b50505050509080600a0160009054906101000a900460ff1690508b565b60045481565b6112646120f6565b61126c612152565b60008311801561127e57506004548311155b6112bd576040517f08c379a00000000000000000000000000000000000000000000000000000000081526004016112b49061369b565b60405180910390fd5b60008084815260200190815260200160002060016000858152602001908152602001600020816040518061016001604052908160008201548152602001600182018054611309906133a0565b80601f0160208091040260200160405190810160405280929190818152602001828054611335906133a0565b80156113825780601f1061135757610100808354040283529160200191611382565b820191906000526020600020905b81548152906001019060200180831161136557829003601f168201915b5050505050815260200160028201805461139b906133a0565b80601f01602080910402602001604051908101604052809291908181526020018280546113c7906133a0565b80156114145780601f106113e957610100808354040283529160200191611414565b820191906000526020600020905b8154815290600101906020018083116113f757829003601f168201915b5050505050815260200160038201805461142d906133a0565b80601f0160208091040260200160405190810160405280929190818152602001828054611459906133a0565b80156114a65780601f1061147b576101008083540402835291602001916114a6565b820191906000526020600020905b81548152906001019060200180831161148957829003601f168201915b505050505081526020016004820180546114bf906133a0565b80601f01602080910402602001604051908101604052809291908181526020018280546114eb906133a0565b80156115385780601f1061150d57610100808354040283529160200191611538565b820191906000526020600020905b81548152906001019060200180831161151b57829003601f168201915b50505050508152602001600582018054611551906133a0565b80601f016020809104026020016040519081016040528092919081815260200182805461157d906133a0565b80156115ca5780601f1061159f576101008083540402835291602001916115ca565b820191906000526020600020905b8154815290600101906020018083116115ad57829003601f168201915b505050505081526020016006820180546115e3906133a0565b80601f016020809104026020016040519081016040528092919081815260200182805461160f906133a0565b801561165c5780601f106116315761010080835404028352916020019161165c565b820191906000526020600020905b81548152906001019060200180831161163f57829003601f168201915b505050505081526020016007820154815260200160088201805461167f906133a0565b80601f01602080910402602001604051908101604052809291908181526020018280546116ab906133a0565b80156116f85780601f106116cd576101008083540402835291602001916116f8565b820191906000526020600020905b8154815290600101906020018083116116db57829003601f168201915b50505050508152602001600982018054611711906133a0565b80601f016020809104026020016040519081016040528092919081815260200182805461173d906133a0565b801561178a5780601f1061175f5761010080835404028352916020019161178a565b820191906000526020600020905b81548152906001019060200180831161176d57829003601f168201915b50505050508152602001600a820160009054906101000a900460ff161515151581525050915080604051806101000160405290816000820180546117cd906133a0565b80601f01602080910402602001604051908101604052809291908181526020018280546117f9906133a0565b80156118465780601f1061181b57610100808354040283529160200191611846565b820191906000526020600020905b81548152906001019060200180831161182957829003601f168201915b5050505050815260200160018201805461185f906133a0565b80601f016020809104026020016040519081016040528092919081815260200182805461188b906133a0565b80156118d85780601f106118ad576101008083540402835291602001916118d8565b820191906000526020600020905b8154815290600101906020018083116118bb57829003601f168201915b505050505081526020016002820180546118f1906133a0565b80601f016020809104026020016040519081016040528092919081815260200182805461191d906133a0565b801561196a5780601f1061193f5761010080835404028352916020019161196a565b820191906000526020600020905b81548152906001019060200180831161194d57829003601f168201915b50505050508152602001600382018054611983906133a0565b80601f01602080910402602001604051908101604052809291908181526020018280546119af906133a0565b80156119fc5780601f106119d1576101008083540402835291602001916119fc565b820191906000526020600020905b8154815290600101906020018083116119df57829003601f168201915b50505050508152602001600482018054611a15906133a0565b80601f0160208091040260200160405190810160405280929190818152602001828054611a41906133a0565b8015611a8e5780601f10611a6357610100808354040283529160200191611a8e565b820191906000526020600020905b815481529060010190602001808311611a7157829003601f168201915b50505050508152602001600582018054611aa7906133a0565b80601f0160208091040260200160405190810160405280929190818152602001828054611ad3906133a0565b8015611b205780601f10611af557610100808354040283529160200191611b20565b820191906000526020600020905b815481529060010190602001808311611b0357829003601f168201915b505050505081526020016006820160009054906101000a900460ff16151515158152602001600782018054611b54906133a0565b80601f0160208091040260200160405190810160405280929190818152602001828054611b80906133a0565b8015611bcd5780601f10611ba257610100808354040283529160200191611bcd565b820191906000526020600020905b815481529060010190602001808311611bb057829003601f168201915b505050505081525050905091509150915091565b6001602052806000526040600020600091509050806000018054611c04906133a0565b80601f0160208091040260200160405190810160405280929190818152602001828054611c30906133a0565b8015611c7d5780601f10611c5257610100808354040283529160200191611c7d565b820191906000526020600020905b815481529060010190602001808311611c6057829003601f168201915b505050505090806001018054611c92906133a0565b80601f0160208091040260200160405190810160405280929190818152602001828054611cbe906133a0565b8015611d0b5780601f10611ce057610100808354040283529160200191611d0b565b820191906000526020600020905b815481529060010190602001808311611cee57829003601f168201915b505050505090806002018054611d20906133a0565b80601f0160208091040260200160405190810160405280929190818152602001828054611d4c906133a0565b8015611d995780601f10611d6e57610100808354040283529160200191611d99565b820191906000526020600020905b815481529060010190602001808311611d7c57829003601f168201915b505050505090806003018054611dae906133a0565b80601f0160208091040260200160405190810160405280929190818152602001828054611dda906133a0565b8015611e275780601f10611dfc57610100808354040283529160200191611e27565b820191906000526020600020905b815481529060010190602001808311611e0a57829003601f168201915b505050505090806004018054611e3c906133a0565b80601f0160208091040260200160405190810160405280929190818152602001828054611e68906133a0565b8015611eb55780601f10611e8a57610100808354040283529160200191611eb5565b820191906000526020600020905b815481529060010190602001808311611e9857829003601f168201915b505050505090806005018054611eca906133a0565b80601f0160208091040260200160405190810160405280929190818152602001828054611ef6906133a0565b8015611f435780601f10611f1857610100808354040283529160200191611f43565b820191906000526020600020905b815481529060010190602001808311611f2657829003601f168201915b5050505050908060060160009054906101000a900460ff1690806007018054611f6b906133a0565b80601f0160208091040260200160405190810160405280929190818152602001828054611f97906133a0565b8015611fe45780601f10611fb957610100808354040283529160200191611fe4565b820191906000526020600020905b815481529060010190602001808311611fc757829003601f168201915b5050505050905088565b60008111801561200057506004548111155b61203f576040517f08c379a000000000000000000000000000000000000000000000000000000000815260040161203690613351565b60405180910390fd5b6001600080838152602001908152602001600020600a0160006101000a81548160ff021916908315150217905550807f055fa23adca4f0eaff3ff99c63c354f8c53f0c1b7dd4407715ca080e21857fda60405160405180910390a250565b8280548282559060005260206000209081019282156120e5579160200282015b828111156120e45782518290816120d4919061357d565b50916020019190600101906120bd565b5b5090506120f29190612199565b5090565b604051806101600160405280600081526020016060815260200160608152602001606081526020016060815260200160608152602001606081526020016000815260200160608152602001606081526020016000151581525090565b604051806101000160405280606081526020016060815260200160608152602001606081526020016060815260200160608152602001600015158152602001606081525090565b5b808211156121b957600081816121b091906121bd565b5060010161219a565b5090565b5080546121c9906133a0565b6000825580601f106121db57506121fa565b601f0160209004906000526020600020908101906121f991906121fd565b5b50565b5b808211156122165760008160009055506001016121fe565b5090565b6000604051905090565b600080fd5b600080fd5b6000819050919050565b6122418161222e565b811461224c57600080fd5b50565b60008135905061225e81612238565b92915050565b600080fd5b6000601f19601f8301169050919050565b7f4e487b7100000000000000000000000000000000000000000000000000000000600052604160045260246000fd5b6122b282612269565b810181811067ffffffffffffffff821117156122d1576122d061227a565b5b80604052505050565b60006122e461221a565b90506122f082826122a9565b919050565b600080fd5b600080fd5b600080fd5b600067ffffffffffffffff82111561231f5761231e61227a565b5b61232882612269565b9050602081019050919050565b82818337600083830152505050565b600061235761235284612304565b6122da565b905082815260208101848484011115612373576123726122ff565b5b61237e848285612335565b509392505050565b600082601f83011261239b5761239a6122fa565b5b81356123ab848260208601612344565b91505092915050565b60008115159050919050565b6123c9816123b4565b81146123d457600080fd5b50565b6000813590506123e6816123c0565b92915050565b6000610100828403121561240357612402612264565b5b61240e6101006122da565b9050600082013567ffffffffffffffff81111561242e5761242d6122f5565b5b61243a84828501612386565b600083015250602082013567ffffffffffffffff81111561245e5761245d6122f5565b5b61246a84828501612386565b602083015250604082013567ffffffffffffffff81111561248e5761248d6122f5565b5b61249a84828501612386565b604083015250606082013567ffffffffffffffff8111156124be576124bd6122f5565b5b6124ca84828501612386565b606083015250608082013567ffffffffffffffff8111156124ee576124ed6122f5565b5b6124fa84828501612386565b60808301525060a082013567ffffffffffffffff81111561251e5761251d6122f5565b5b61252a84828501612386565b60a08301525060c061253e848285016123d7565b60c08301525060e082013567ffffffffffffffff811115612562576125616122f5565b5b61256e84828501612386565b60e08301525092915050565b6000806040838503121561259157612590612224565b5b600061259f8582860161224f565b925050602083013567ffffffffffffffff8111156125c0576125bf612229565b5b6125cc858286016123ec565b9150509250929050565b6000602082840312156125ec576125eb612224565b5b60006125fa8482850161224f565b91505092915050565b600081519050919050565b600082825260208201905092915050565b6000819050602082019050919050565b6126388161222e565b82525050565b600081519050919050565b600082825260208201905092915050565b60005b8381101561267857808201518184015260208101905061265d565b60008484015250505050565b600061268f8261263e565b6126998185612649565b93506126a981856020860161265a565b6126b281612269565b840191505092915050565b6126c6816123b4565b82525050565b600081519050919050565b600082825260208201905092915050565b6000819050602082019050919050565b60006127048383612684565b905092915050565b6000602082019050919050565b6000612724826126cc565b61272e81856126d7565b935083602082028501612740856126e8565b8060005b8581101561277c578484038952815161275d85826126f8565b94506127688361270c565b925060208a01995050600181019050612744565b50829750879550505050505092915050565b60006101c0830160008301516127a7600086018261262f565b50602083015184820360208601526127bf8282612684565b915050604083015184820360408601526127d98282612684565b915050606083015184820360608601526127f38282612684565b9150506080830151612808608086018261262f565b5060a083015161281b60a086018261262f565b5060c083015184820360c08601526128338282612684565b91505060e083015184820360e086015261284d8282612684565b9150506101008301516128646101008601826126bd565b506101208301516128796101208601826126bd565b5061014083015161288e6101408601826126bd565b506101608301518482036101608601526128a88282612684565b9150506101808301518482036101808601526128c48282612684565b9150506101a08301518482036101a08601526128e08282612719565b9150508091505092915050565b60006128f9838361278e565b905092915050565b6000602082019050919050565b600061291982612603565b612923818561260e565b9350836020820285016129358561261f565b8060005b85811015612971578484038952815161295285826128ed565b945061295d83612901565b925060208a01995050600181019050612939565b50829750879550505050505092915050565b6000602082019050818103600083015261299d818461290e565b905092915050565b60008060008060008060008060006101208a8c0312156129c8576129c7612224565b5b60008a013567ffffffffffffffff8111156129e6576129e5612229565b5b6129f28c828d01612386565b99505060208a013567ffffffffffffffff811115612a1357612a12612229565b5b612a1f8c828d01612386565b98505060408a013567ffffffffffffffff811115612a4057612a3f612229565b5b612a4c8c828d01612386565b97505060608a013567ffffffffffffffff811115612a6d57612a6c612229565b5b612a798c828d01612386565b96505060808a013567ffffffffffffffff811115612a9a57612a99612229565b5b612aa68c828d01612386565b95505060a08a013567ffffffffffffffff811115612ac757612ac6612229565b5b612ad38c828d01612386565b94505060c0612ae48c828d0161224f565b93505060e08a013567ffffffffffffffff811115612b0557612b04612229565b5b612b118c828d01612386565b9250506101008a013567ffffffffffffffff811115612b3357612b32612229565b5b612b3f8c828d01612386565b9150509295985092959850929598565b600067ffffffffffffffff821115612b6a57612b6961227a565b5b602082029050602081019050919050565b600080fd5b6000612b93612b8e84612b4f565b6122da565b90508083825260208201905060208402830185811115612bb657612bb5612b7b565b5b835b81811015612bfd57803567ffffffffffffffff811115612bdb57612bda6122fa565b5b808601612be88982612386565b85526020850194505050602081019050612bb8565b5050509392505050565b600082601f830112612c1c57612c1b6122fa565b5b8135612c2c848260208601612b80565b91505092915050565b60006101c08284031215612c4c57612c4b612264565b5b612c576101c06122da565b90506000612c678482850161224f565b600083015250602082013567ffffffffffffffff811115612c8b57612c8a6122f5565b5b612c9784828501612386565b602083015250604082013567ffffffffffffffff811115612cbb57612cba6122f5565b5b612cc784828501612386565b604083015250606082013567ffffffffffffffff811115612ceb57612cea6122f5565b5b612cf784828501612386565b6060830152506080612d0b8482850161224f565b60808301525060a0612d1f8482850161224f565b60a08301525060c082013567ffffffffffffffff811115612d4357612d426122f5565b5b612d4f84828501612386565b60c08301525060e082013567ffffffffffffffff811115612d7357612d726122f5565b5b612d7f84828501612386565b60e083015250610100612d94848285016123d7565b61010083015250610120612daa848285016123d7565b61012083015250610140612dc0848285016123d7565b6101408301525061016082013567ffffffffffffffff811115612de657612de56122f5565b5b612df284828501612386565b6101608301525061018082013567ffffffffffffffff811115612e1857612e176122f5565b5b612e2484828501612386565b610180830152506101a082013567ffffffffffffffff811115612e4a57612e496122f5565b5b612e5684828501612c07565b6101a08301525092915050565b60008060408385031215612e7a57612e79612224565b5b6000612e888582860161224f565b925050602083013567ffffffffffffffff811115612ea957612ea8612229565b5b612eb585828601612c35565b9150509250929050565b612ec88161222e565b82525050565b600082825260208201905092915050565b6000612eea8261263e565b612ef48185612ece565b9350612f0481856020860161265a565b612f0d81612269565b840191505092915050565b612f21816123b4565b82525050565b600061016082019050612f3d600083018e612ebf565b8181036020830152612f4f818d612edf565b90508181036040830152612f63818c612edf565b90508181036060830152612f77818b612edf565b90508181036080830152612f8b818a612edf565b905081810360a0830152612f9f8189612edf565b905081810360c0830152612fb38188612edf565b9050612fc260e0830187612ebf565b818103610100830152612fd58186612edf565b9050818103610120830152612fea8185612edf565b9050612ffa610140830184612f18565b9c9b505050505050505050505050565b600060208201905061301f6000830184612ebf565b92915050565b60006101608301600083015161303e600086018261262f565b50602083015184820360208601526130568282612684565b915050604083015184820360408601526130708282612684565b9150506060830151848203606086015261308a8282612684565b915050608083015184820360808601526130a48282612684565b91505060a083015184820360a08601526130be8282612684565b91505060c083015184820360c08601526130d88282612684565b91505060e08301516130ed60e086018261262f565b506101008301518482036101008601526131078282612684565b9150506101208301518482036101208601526131238282612684565b91505061014083015161313a6101408601826126bd565b508091505092915050565b60006101008301600083015184820360008601526131638282612684565b9150506020830151848203602086015261317d8282612684565b915050604083015184820360408601526131978282612684565b915050606083015184820360608601526131b18282612684565b915050608083015184820360808601526131cb8282612684565b91505060a083015184820360a08601526131e58282612684565b91505060c08301516131fa60c08601826126bd565b5060e083015184820360e08601526132128282612684565b9150508091505092915050565b600060408201905081810360008301526132398185613025565b9050818103602083015261324d8184613145565b90509392505050565b6000610100820190508181036000830152613271818b612edf565b90508181036020830152613285818a612edf565b905081810360408301526132998189612edf565b905081810360608301526132ad8188612edf565b905081810360808301526132c18187612edf565b905081810360a08301526132d58186612edf565b90506132e460c0830185612f18565b81810360e08301526132f68184612edf565b90509998505050505050505050565b7f496e76616c696420736d61727470686f6e652049440000000000000000000000600082015250565b600061333b601583612ece565b915061334682613305565b602082019050919050565b6000602082019050818103600083015261336a8161332e565b9050919050565b7f4e487b7100000000000000000000000000000000000000000000000000000000600052602260045260246000fd5b600060028204905060018216806133b857607f821691505b6020821081036133cb576133ca613371565b5b50919050565b60008190508160005260206000209050919050565b60006020601f8301049050919050565b600082821b905092915050565b6000600883026134337fffffffffffffffffffffffffffffffffffffffffffffffffffffffffffffffff826133f6565b61343d86836133f6565b95508019841693508086168417925050509392505050565b6000819050919050565b600061347a6134756134708461222e565b613455565b61222e565b9050919050565b6000819050919050565b6134948361345f565b6134a86134a082613481565b848454613403565b825550505050565b600090565b6134bd6134b0565b6134c881848461348b565b505050565b5b818110156134ec576134e16000826134b5565b6001810190506134ce565b5050565b601f82111561353157613502816133d1565b61350b846133e6565b8101602085101561351a578190505b61352e613526856133e6565b8301826134cd565b50505b505050565b600082821c905092915050565b600061355460001984600802613536565b1980831691505092915050565b600061356d8383613543565b9150826002028217905092915050565b6135868261263e565b67ffffffffffffffff81111561359f5761359e61227a565b5b6135a982546133a0565b6135b48282856134f0565b600060209050601f8311600181146135e757600084156135d5578287015190505b6135df8582613561565b865550613647565b601f1984166135f5866133d1565b60005b8281101561361d578489015182556001820191506020850194506020810190506135f8565b8683101561363a5784890151613636601f891682613543565b8355505b6001600288020188555050505b505050505050565b7f536d61727470686f6e65206e6f7420666f756e64000000000000000000000000600082015250565b6000613685601483612ece565b91506136908261364f565b602082019050919050565b600060208201905081810360008301526136b481613678565b9050919050565b600081905092915050565b60006136d18261263e565b6136db81856136bb565b93506136eb81856020860161265a565b80840191505092915050565b600061370382846136c6565b915081905092915050565b7f494d454920616c72656164792072656769737465726564000000000000000000600082015250565b6000613744601783612ece565b915061374f8261370e565b602082019050919050565b6000602082019050818103600083015261377381613737565b9050919050565b7f4e487b7100000000000000000000000000000000000000000000000000000000600052601160045260246000fd5b60006137b48261222e565b91507fffffffffffffffffffffffffffffffffffffffffffffffffffffffffffffffff82036137e6576137e561377a565b5b600182019050919050565b6000602082019050818103600083015261380b8184612edf565b90509291505056fea264697066735822122018c0000bb637073fb360ebbd55f426a0a58384551e9cf40059655ef44a6dcb1964736f6c634300081c0033",
  "linkReferences": {},
  "deployedLinkReferences": {}
}