{
  "_format": "hh-sol-artifact-1",
  "contractName": "ProductLifecycle",
  "sourceName": "contracts/ProductLifecycle.sol",
  "abi": [
    {
      "anonymous": false,
      "inputs": [
        {
          "indexed": true,
          "internalType": "uint256",
          "name": "id",
          "type": "uint256"
        }
      ],
      "name": "SmartphoneMarkedAsRefurbished",
      "type": "event"
    },
    {
      "anonymous": false,
      "inputs": [
        {
          "indexed": true,
          "internalType": "uint256",
          "name": "id",
          "type": "uint256"
        },
        {
          "indexed": false,
          "internalType": "string",
          "name": "technicianName",
          "type": "string"
        }
      ],
      "name": "SmartphoneRefurbished",
      "type": "event"
    },
    {
      "anonymous": false,
      "inputs": [
        {
          "indexed": true,
          "internalType": "uint256",
          "name": "id",
          "type": "uint256"
        },
        {
          "indexed": false,
          "internalType": "string",
          "name": "imeiNumber",
          "type": "string"
        }
      ],
      "name": "SmartphoneRegistered",
      "type": "event"
    },
    {
      "anonymous": false,
      "inputs": [
        {
          "indexed": true,
          "internalType": "uint256",
          "name": "id",
          "type": "uint256"
        }
      ],
      "name": "SmartphoneStatusUpdated",
      "type": "event"
    },
    {
      "inputs": [
        {
          "internalType": "uint256",
          "name": "_id",
          "type": "uint256"
        }
      ],
      "name": "getRefurbishments",
      "outputs": [
        {
          "components": [
            {
              "internalType": "uint256",
              "name": "timestamp",
              "type": "uint256"
            },
            {
              "internalType": "string",
              "name": "details",
              "type": "string"
            },
            {
              "internalType": "string",
              "name": "technicianName",
              "type": "string"
            },
            {
              "internalType": "string",
              "name": "certificateHash",
              "type": "string"
            },
            {
              "internalType": "uint256",
              "name": "warrantyExtension",
              "type": "uint256"
            },
            {
              "internalType": "uint256",
              "name": "refurbishmentCost",
              "type": "uint256"
            },
            {
              "internalType": "string",
              "name": "newSerialNumber",
              "type": "string"
            },
            {
              "internalType": "string",
              "name": "softwareUpdateVersion",
              "type": "string"
            },
            {
              "internalType": "bool",
              "name": "batteryReplaced",
              "type": "bool"
            },
            {
              "internalType": "bool",
              "name": "screenReplaced",
              "type": "bool"
            },
            {
              "internalType": "bool",
              "name": "motherboardReplaced",
              "type": "bool"
            },
            {
              "internalType": "string",
              "name": "refurbishmentGrade",
              "type": "string"
            },
            {
              "internalType": "string",
              "name": "physicalCondition",
              "type": "string"
            },
            {
              "internalType": "string[]",
              "name": "replacedComponents",
              "type": "string[]"
            }
          ],
          "internalType": "struct ProductLifecycle.Refurbishment[]",
          "name": "",
          "type": "tuple[]"
        }
      ],
      "stateMutability": "view",
      "type": "function"
    },
    {
      "inputs": [
        {
          "internalType": "uint256",
          "name": "_id",
          "type": "uint256"
        }
      ],
      "name": "getSmartphone",
      "outputs": [
        {
          "components": [
            {
              "internalType": "uint256",
              "name": "id",
              "type": "uint256"
            },
            {
              "internalType": "string",
              "name": "brand",
              "type": "string"
            },
            {
              "internalType": "string",
              "name": "model",
              "type": "string"
            },
            {
              "internalType": "string",
              "name": "osVersion",
              "type": "string"
            },
            {
              "internalType": "string",
              "name": "imeiNumber",
              "type": "string"
            },
            {
              "internalType": "string",
              "name": "manufactureDate",
              "type": "string"
            },
            {
              "internalType": "string",
              "name": "serialNumber",
              "type": "string"
            },
            {
              "internalType": "uint256",
              "name": "warrantyPeriod",
              "type": "uint256"
            },
            {
              "internalType": "string",
              "name": "condition",
              "type": "string"
            },
            {
              "internalType": "string",
              "name": "locationOfRegistration",
              "type": "string"
            },
            {
              "internalType": "bool",
              "name": "isRefurbished",
              "type": "bool"
            }
          ],
          "internalType": "struct ProductLifecycle.Smartphone",
          "name": "",
          "type": "tuple"
        },
        {
          "components": [
            {
              "internalType": "string",
              "name": "batteryHealth",
              "type": "string"
            },
            {
              "internalType": "string",
              "name": "screenCondition",
              "type": "string"
            },
            {
              "internalType": "string",
              "name": "storageCapacity",
              "type": "string"
            },
            {
              "internalType": "string",
              "name": "ramSize",
              "type": "string"
            },
            {
              "internalType": "string",
              "name": "networkStatus",
              "type": "string"
            },
            {
              "internalType": "string",
              "name": "activationStatus",
              "type": "string"
            },
            {
              "internalType": "bool",
              "name": "blacklistStatus",
              "type": "bool"
            },
            {
              "internalType": "string",
              "name": "physicalCondition",
              "type": "string"
            }
          ],
          "internalType": "struct ProductLifecycle.SmartphoneStatus",
          "name": "",
          "type": "tuple"
        }
      ],
      "stateMutability": "view",
      "type": "function"
    },
    {
      "inputs": [
        {
          "internalType": "uint256",
          "name": "_id",
          "type": "uint256"
        }
      ],
      "name": "markAsRefurbished",
      "outputs": [],
      "stateMutability": "nonpayable",
      "type": "function"
    },
    {
      "inputs": [
        {
          "internalType": "uint256",
          "name": "_id",
          "type": "uint256"
        },
        {
          "components": [
            {
              "internalType": "uint256",
              "name": "timestamp",
              "type": "uint256"
            },
            {
              "internalType": "string",
              "name": "details",
              "type": "string"
            },
            {
              "internalType": "string",
              "name": "technicianName",
              "type": "string"
            },
            {
              "internalType": "string",
              "name": "certificateHash",
              "type": "string"
            },
            {
              "internalType": "uint256",
              "name": "warrantyExtension",
              "type": "uint256"
            },
            {
              "internalType": "uint256",
              "name": "refurbishmentCost",
              "type": "uint256"
            },
            {
              "internalType": "string",
              "name": "newSerialNumber",
              "type": "string"
            },
            {
              "internalType": "string",
              "name": "softwareUpdateVersion",
              "type": "string"
            },
            {
              "internalType": "bool",
              "name": "batteryReplaced",
              "type": "bool"
            },
            {
              "internalType": "bool",
              "name": "screenReplaced",
              "type": "bool"
            },
            {
              "internalType": "bool",
              "name": "motherboardReplaced",
              "type": "bool"
            },
            {
              "internalType": "string",
              "name": "refurbishmentGrade",
              "type": "string"
            },
            {
              "internalType": "string",
              "name": "physicalCondition",
              "type": "string"
            },
            {
              "internalType": "string[]",
              "name": "replacedComponents",
              "type": "string[]"
            }
          ],
          "internalType": "struct ProductLifecycle.Refurbishment",
          "name": "_refurbishment",
          "type": "tuple"
        }
      ],
      "name": "refurbishSmartphone",
      "outputs": [],
      "stateMutability": "nonpayable",
      "type": "function"
    },
    {
      "inputs": [
        {
          "internalType": "string",
          "name": "_brand",
          "type": "string"
        },
        {
          "internalType": "string",
          "name": "_model",
          "type": "string"
        },
        {
          "internalType": "string",
          "name": "_osVersion",
          "type": "string"
        },
        {
          "internalType": "string",
          "name": "_imeiNumber",
          "type": "string"
        },
        {
          "internalType": "string",
          "name": "_manufactureDate",
          "type": "string"
        },
        {
          "internalType": "string",
          "name": "_serialNumber",
          "type": "string"
        },
        {
          "internalType": "uint256",
          "name": "_warrantyPeriod",
          "type": "uint256"
        },
        {
          "internalType": "string",
          "name": "_condition",
          "type": "string"
        },
        {
          "internalType": "string",
          "name": "_locationOfRegistration",
          "type": "string"
        }
      ],
      "name": "registerSmartphone",
      "outputs": [],
      "stateMutability": "nonpayable",
      "type": "function"
    },
    {
      "inputs": [
        {
          "internalType": "uint256",
          "name": "_id",
          "type": "uint256"
        },
        {
          "components": [
            {
              "internalType": "string",
              "name": "batteryHealth",
              "type": "string"
            },
            {
              "internalType": "string",
              "name": "screenCondition",
              "type": "string"
            },
            {
              "internalType": "string",
              "name": "storageCapacity",
              "type": "string"
            },
            {
              "internalType": "string",
              "name": "ramSize",
              "type": "string"
            },
            {
              "internalType": "string",
              "name": "networkStatus",
              "type": "string"
            },
            {
              "internalType": "string",
              "name": "activationStatus",
              "type": "string"
            },
            {
              "internalType": "bool",
              "name": "blacklistStatus",
              "type": "bool"
            },
            {
              "internalType": "string",
              "name": "physicalCondition",
              "type": "string"
            }
          ],
          "internalType": "struct ProductLifecycle.SmartphoneStatus",
          "name": "_status",
          "type": "tuple"
        }
      ],
      "name": "setSmartphoneStatus",
      "outputs": [],
      "stateMutability": "nonpayable",
      "type": "function"
    },
    {
      "inputs": [],
      "name": "smartphoneCount",
      "outputs": [
        {
          "internalType": "uint256",
          "name": "",
          "type": "uint256"
        }
      ],
      "stateMutability": "view",
      "type": "function"
    },
    {
      "inputs": [
        {
          "internalType": "uint256",
          "name": "",
          "type": "uint256"
        }
      ],
      "name": "smartphoneStatus",
      "outputs": [
        {
          "internalType": "string",
          "name": "batteryHealth",
          "type": "string"
        },
        {
          "internalType": "string",
          "name": "screenCondition",
          "type": "string"
        },
        {
          "internalType": "string",
          "name": "storageCapacity",
          "type": "string"
        },
        {
          "internalType": "string",
          "name": "ramSize",
          "type": "string"
        },
        {
          "internalType": "string",
          "name": "networkStatus",
          "type": "string"
        },
        {
          "internalType": "string",
          "name": "activationStatus",
          "type": "string"
        },
        {
          "internalType": "bool",
          "name": "blacklistStatus",
          "type": "bool"
        },
        {
          "internalType": "string",
          "name": "physicalCondition",
          "type": "string"
        }
      ],
      "stateMutability": "view",
      "type": "function"
    },
    {
      "inputs": [
        {
          "internalType": "uint256",
          "name": "",
          "type": "uint256"
        }
      ],
      "name": "smartphones",
      "outputs": [
        {
          "internalType": "uint256",
          "name": "id",
          "type": "uint256"
        },
        {
          "internalType": "string",
          "name": "brand",
          "type": "string"
        },
        {
          "internalType": "string",
          "name": "model",
          "type": "string"
        },
        {
          "internalType": "string",
          "name": "osVersion",
          "type": "string"
        },
        {
          "internalType": "string",
          "name": "imeiNumber",
          "type": "string"
        },
        {
          "internalType": "string",
          "name": "manufactureDate",
          "type": "string"
        },
        {
          "internalType": "string",
          "name": "serialNumber",
          "type": "string"
        },
        {
          "internalType": "uint256",
          "name": "warrantyPeriod",
          "type": "uint256"
        },
        {
          "internalType": "string",
          "name": "condition",
          "type": "string"
        },
        {
          "internalType": "string",
          "name": "locationOfRegistration",
          "type": "string"
        },
        {
          "internalType": "bool",
          "name": "isRefurbished",
          "type": "bool"
        }
      ],
      "stateMutability": "view",
      "type": "function"
    }
  ],
  "bytecode": "0x6080604052348015600f57600080fd5b506138b08061001f6000396000f3fe608060405234801561001057600080fd5b50600436106100935760003560e01c80639579606e116100665780639579606e1461011c57806397e35be0146101565780639ca0626c146101745780639cd100d5146101a5578063bb07eef4146101dc57610093565b8063148e2543146100985780633aa8c1e9146100b45780634cfe9abe146100e457806380956bff14610100575b600080fd5b6100b260048036038101906100ad91906125e1565b6101f8565b005b6100ce60048036038101906100c9919061263d565b61034b565b6040516100db91906129ea565b60405180910390f35b6100fe60048036038101906100f99190612a0c565b610955565b005b61011a60048036038101906101159190612eca565b610ba4565b005b6101366004803603810190610131919061263d565b610e10565b60405161014d9b9a99989796959493929190612f8e565b60405180910390f35b61015e6112b7565b60405161016b9190613071565b60405180910390f35b61018e6004803603810190610189919061263d565b6112bd565b60405161019c929190613286565b60405180910390f35b6101bf60048036038101906101ba919061263d565b611c42565b6040516101d39897969594939291906132bd565b60405180910390f35b6101f660048036038101906101f1919061263d565b61204f565b005b60008211801561020a57506004548211155b610249576040517f08c379a0000000000000000000000000000000000000000000000000000000008152600401610240906133b8565b60405180910390fd5b8060016000848152602001908152602001600020600082015181600001908161027291906135e4565b50602082015181600101908161028891906135e4565b50604082015181600201908161029e91906135e4565b5060608201518160030190816102b491906135e4565b5060808201518160040190816102ca91906135e4565b5060a08201518160050190816102e091906135e4565b5060c08201518160060160006101000a81548160ff02191690831515021790555060e082015181600701908161031691906135e4565b50905050817f1c2d380f318476319924d1e5f6106772b7942161b4dc587aa6d7a12e26bf0f1c60405160405180910390a25050565b606060008211801561035f57506004548211155b61039e576040517f08c379a000000000000000000000000000000000000000000000000000000000815260040161039590613702565b60405180910390fd5b60026000838152602001908152602001600020805480602002602001604051908101604052809291908181526020016000905b8282101561094a57838290600052602060002090600c0201604051806101c00160405290816000820154815260200160018201805461040f90613407565b80601f016020809104026020016040519081016040528092919081815260200182805461043b90613407565b80156104885780601f1061045d57610100808354040283529160200191610488565b820191906000526020600020905b81548152906001019060200180831161046b57829003601f168201915b505050505081526020016002820180546104a190613407565b80601f01602080910402602001604051908101604052809291908181526020018280546104cd90613407565b801561051a5780601f106104ef5761010080835404028352916020019161051a565b820191906000526020600020905b8154815290600101906020018083116104fd57829003601f168201915b5050505050815260200160038201805461053390613407565b80601f016020809104026020016040519081016040528092919081815260200182805461055f90613407565b80156105ac5780601f10610581576101008083540402835291602001916105ac565b820191906000526020600020905b81548152906001019060200180831161058f57829003601f168201915b5050505050815260200160048201548152602001600582015481526020016006820180546105d990613407565b80601f016020809104026020016040519081016040528092919081815260200182805461060590613407565b80156106525780601f1061062757610100808354040283529160200191610652565b820191906000526020600020905b81548152906001019060200180831161063557829003601f168201915b5050505050815260200160078201805461066b90613407565b80601f016020809104026020016040519081016040528092919081815260200182805461069790613407565b80156106e45780601f106106b9576101008083540402835291602001916106e4565b820191906000526020600020905b8154815290600101906020018083116106c757829003601f168201915b505050505081526020016008820160009054906101000a900460ff161515151581526020016008820160019054906101000a900460ff161515151581526020016008820160029054906101000a900460ff1615151515815260200160098201805461074e90613407565b80601f016020809104026020016040519081016040528092919081815260200182805461077a90613407565b80156107c75780601f1061079c576101008083540402835291602001916107c7565b820191906000526020600020905b8154815290600101906020018083116107aa57829003601f168201915b50505050508152602001600a820180546107e090613407565b80601f016020809104026020016040519081016040528092919081815260200182805461080c90613407565b80156108595780601f1061082e57610100808354040283529160200191610859565b820191906000526020600020905b81548152906001019060200180831161083c57829003601f168201915b50505050508152602001600b8201805480602002602001604051908101604052809291908181526020016000905b828210156109335783829060005260206000200180546108a690613407565b80601f01602080910402602001604051908101604052809291908181526020018280546108d290613407565b801561091f5780601f106108f45761010080835404028352916020019161091f565b820191906000526020600020905b81548152906001019060200180831161090257829003601f168201915b505050505081526020019060010190610887565b5050505081525050815260200190600101906103d1565b505050509050919050565b600386604051610965919061375e565b908152602001604051809103902060009054906101000a900460ff16156109c1576040517f08c379a00000000000000000000000000000000000000000000000000000000081526004016109b8906137c1565b60405180910390fd5b600460008154809291906109d490613810565b919050555060405180610160016040528060045481526020018a8152602001898152602001888152602001878152602001868152602001858152602001848152602001838152602001828152602001600015158152506000806004548152602001908152602001600020600082015181600001556020820151816001019081610a5d91906135e4565b506040820151816002019081610a7391906135e4565b506060820151816003019081610a8991906135e4565b506080820151816004019081610a9f91906135e4565b5060a0820151816005019081610ab591906135e4565b5060c0820151816006019081610acb91906135e4565b5060e08201518160070155610100820151816008019081610aec91906135e4565b50610120820151816009019081610b0391906135e4565b5061014082015181600a0160006101000a81548160ff0219169083151502179055509050506001600387604051610b3a919061375e565b908152602001604051809103902060006101000a81548160ff0219169083151502179055506004547f7055248320dc668ebf3a83cabeca414cf50bd9fef5477cf460af467275e3e3c287604051610b919190613858565b60405180910390a2505050505050505050565b600082118015610bb657506004548211155b610bf5576040517f08c379a0000000000000000000000000000000000000000000000000000000008152600401610bec906133b8565b60405180910390fd5b600260008381526020019081526020016000208190806001815401808255809150506001900390600052602060002090600c0201600090919091909150600082015181600001556020820151816001019081610c5191906135e4565b506040820151816002019081610c6791906135e4565b506060820151816003019081610c7d91906135e4565b506080820151816004015560a0820151816005015560c0820151816006019081610ca791906135e4565b5060e0820151816007019081610cbd91906135e4565b506101008201518160080160006101000a81548160ff0219169083151502179055506101208201518160080160016101000a81548160ff0219169083151502179055506101408201518160080160026101000a81548160ff021916908315150217905550610160820151816009019081610d3791906135e4565b5061018082015181600a019081610d4e91906135e4565b506101a082015181600b019080519060200190610d6c929190612104565b50505060008060008481526020019081526020016000209050600181600a0160006101000a81548160ff021916908315150217905550827fa4b3acf3cf628154b8c1fb2d9cc1ed114bfb74ad370627cb4c16db7ebeb3afcc8360400151604051610dd69190613858565b60405180910390a2827f055fa23adca4f0eaff3ff99c63c354f8c53f0c1b7dd4407715ca080e21857fda60405160405180910390a2505050565b6000602052806000526040600020600091509050806000015490806001018054610e3990613407565b80601f0160208091040260200160405190810160405280929190818152602001828054610e6590613407565b8015610eb25780601f10610e8757610100808354040283529160200191610eb2565b820191906000526020600020905b815481529060010190602001808311610e9557829003601f168201915b505050505090806002018054610ec790613407565b80601f0160208091040260200160405190810160405280929190818152602001828054610ef390613407565b8015610f405780601f10610f1557610100808354040283529160200191610f40565b820191906000526020600020905b815481529060010190602001808311610f2357829003601f168201915b505050505090806003018054610f5590613407565b80601f0160208091040260200160405190810160405280929190818152602001828054610f8190613407565b8015610fce5780601f10610fa357610100808354040283529160200191610fce565b820191906000526020600020905b815481529060010190602001808311610fb157829003601f168201915b505050505090806004018054610fe390613407565b80601f016020809104026020016040519081016040528092919081815260200182805461100f90613407565b801561105c5780601f106110315761010080835404028352916020019161105c565b820191906000526020600020905b81548152906001019060200180831161103f57829003601f168201915b50505050509080600501805461107190613407565b80601f016020809104026020016040519081016040528092919081815260200182805461109d90613407565b80156110ea5780601f106110bf576101008083540402835291602001916110ea565b820191906000526020600020905b8154815290600101906020018083116110cd57829003601f168201915b5050505050908060060180546110ff90613407565b80601f016020809104026020016040519081016040528092919081815260200182805461112b90613407565b80156111785780601f1061114d57610100808354040283529160200191611178565b820191906000526020600020905b81548152906001019060200180831161115b57829003601f168201915b50505050509080600701549080600801805461119390613407565b80601f01602080910402602001604051908101604052809291908181526020018280546111bf90613407565b801561120c5780601f106111e15761010080835404028352916020019161120c565b820191906000526020600020905b8154815290600101906020018083116111ef57829003601f168201915b50505050509080600901805461122190613407565b80601f016020809104026020016040519081016040528092919081815260200182805461124d90613407565b801561129a5780601f1061126f5761010080835404028352916020019161129a565b820191906000526020600020905b81548152906001019060200180831161127d57829003601f168201915b50505050509080600a0160009054906101000a900460ff1690508b565b60045481565b6112c561215d565b6112cd6121b9565b6000831180156112df57506004548311155b61131e576040517f08c379a000000000000000000000000000000000000000000000000000000000815260040161131590613702565b60405180910390fd5b6000808481526020019081526020016000206001600085815260200190815260200160002081604051806101600160405290816000820154815260200160018201805461136a90613407565b80601f016020809104026020016040519081016040528092919081815260200182805461139690613407565b80156113e35780601f106113b8576101008083540402835291602001916113e3565b820191906000526020600020905b8154815290600101906020018083116113c657829003601f168201915b505050505081526020016002820180546113fc90613407565b80601f016020809104026020016040519081016040528092919081815260200182805461142890613407565b80156114755780601f1061144a57610100808354040283529160200191611475565b820191906000526020600020905b81548152906001019060200180831161145857829003601f168201915b5050505050815260200160038201805461148e90613407565b80601f01602080910402602001604051908101604052809291908181526020018280546114ba90613407565b80156115075780601f106114dc57610100808354040283529160200191611507565b820191906000526020600020905b8154815290600101906020018083116114ea57829003601f168201915b5050505050815260200160048201805461152090613407565b80601f016020809104026020016040519081016040528092919081815260200182805461154c90613407565b80156115995780601f1061156e57610100808354040283529160200191611599565b820191906000526020600020905b81548152906001019060200180831161157c57829003601f168201915b505050505081526020016005820180546115b290613407565b80601f01602080910402602001604051908101604052809291908181526020018280546115de90613407565b801561162b5780601f106116005761010080835404028352916020019161162b565b820191906000526020600020905b81548152906001019060200180831161160e57829003601f168201915b5050505050815260200160068201805461164490613407565b80601f016020809104026020016040519081016040528092919081815260200182805461167090613407565b80156116bd5780601f10611692576101008083540402835291602001916116bd565b820191906000526020600020905b8154815290600101906020018083116116a057829003601f168201915b50505050508152602001600782015481526020016008820180546116e090613407565b80601f016020809104026020016040519081016040528092919081815260200182805461170c90613407565b80156117595780601f1061172e57610100808354040283529160200191611759565b820191906000526020600020905b81548152906001019060200180831161173c57829003601f168201915b5050505050815260200160098201805461177290613407565b80601f016020809104026020016040519081016040528092919081815260200182805461179e90613407565b80156117eb5780601f106117c0576101008083540402835291602001916117eb565b820191906000526020600020905b8154815290600101906020018083116117ce57829003601f168201915b50505050508152602001600a820160009054906101000a900460ff1615151515815250509150806040518061010001604052908160008201805461182e90613407565b80601f016020809104026020016040519081016040528092919081815260200182805461185a90613407565b80156118a75780601f1061187c576101008083540402835291602001916118a7565b820191906000526020600020905b81548152906001019060200180831161188a57829003601f168201915b505050505081526020016001820180546118c090613407565b80601f01602080910402602001604051908101604052809291908181526020018280546118ec90613407565b80156119395780601f1061190e57610100808354040283529160200191611939565b820191906000526020600020905b81548152906001019060200180831161191c57829003601f168201915b5050505050815260200160028201805461195290613407565b80601f016020809104026020016040519081016040528092919081815260200182805461197e90613407565b80156119cb5780601f106119a0576101008083540402835291602001916119cb565b820191906000526020600020905b8154815290600101906020018083116119ae57829003601f168201915b505050505081526020016003820180546119e490613407565b80601f0160208091040260200160405190810160405280929190818152602001828054611a1090613407565b8015611a5d5780601f10611a3257610100808354040283529160200191611a5d565b820191906000526020600020905b815481529060010190602001808311611a4057829003601f168201915b50505050508152602001600482018054611a7690613407565b80601f0160208091040260200160405190810160405280929190818152602001828054611aa290613407565b8015611aef5780601f10611ac457610100808354040283529160200191611aef565b820191906000526020600020905b815481529060010190602001808311611ad257829003601f168201915b50505050508152602001600582018054611b0890613407565b80601f0160208091040260200160405190810160405280929190818152602001828054611b3490613407565b8015611b815780601f10611b5657610100808354040283529160200191611b81565b820191906000526020600020905b815481529060010190602001808311611b6457829003601f168201915b505050505081526020016006820160009054906101000a900460ff16151515158152602001600782018054611bb590613407565b80601f0160208091040260200160405190810160405280929190818152602001828054611be190613407565b8015611c2e5780601f10611c0357610100808354040283529160200191611c2e565b820191906000526020600020905b815481529060010190602001808311611c1157829003601f168201915b505050505081525050905091509150915091565b6001602052806000526040600020600091509050806000018054611c6590613407565b80601f0160208091040260200160405190810160405280929190818152602001828054611c9190613407565b8015611cde5780601f10611cb357610100808354040283529160200191611cde565b820191906000526020600020905b815481529060010190602001808311611cc157829003601f168201915b505050505090806001018054611cf390613407565b80601f0160208091040260200160405190810160405280929190818152602001828054611d1f90613407565b8015611d6c5780601f10611d4157610100808354040283529160200191611d6c565b820191906000526020600020905b815481529060010190602001808311611d4f57829003601f168201915b505050505090806002018054611d8190613407565b80601f0160208091040260200160405190810160405280929190818152602001828054611dad90613407565b8015611dfa5780601f10611dcf57610100808354040283529160200191611dfa565b820191906000526020600020905b815481529060010190602001808311611ddd57829003601f168201915b505050505090806003018054611e0f90613407565b80601f0160208091040260200160405190810160405280929190818152602001828054611e3b90613407565b8015611e885780601f10611e5d57610100808354040283529160200191611e88565b820191906000526020600020905b815481529060010190602001808311611e6b57829003601f168201915b505050505090806004018054611e9d90613407565b80601f0160208091040260200160405190810160405280929190818152602001828054611ec990613407565b8015611f165780601f10611eeb57610100808354040283529160200191611f16565b820191906000526020600020905b815481529060010190602001808311611ef957829003601f168201915b505050505090806005018054611f2b90613407565b80601f0160208091040260200160405190810160405280929190818152602001828054611f5790613407565b8015611fa45780601f10611f7957610100808354040283529160200191611fa4565b820191906000526020600020905b815481529060010190602001808311611f8757829003601f168201915b5050505050908060060160009054906101000a900460ff1690806007018054611fcc90613407565b80601f0160208091040260200160405190810160405280929190818152602001828054611ff890613407565b80156120455780601f1061201a57610100808354040283529160200191612045565b820191906000526020600020905b81548152906001019060200180831161202857829003601f168201915b5050505050905088565b60008111801561206157506004548111155b6120a0576040517f08c379a0000000000000000000000000000000000000000000000000000000008152600401612097906133b8565b60405180910390fd5b60008060008381526020019081526020016000209050600181600a0160006101000a81548160ff021916908315150217905550817f055fa23adca4f0eaff3ff99c63c354f8c53f0c1b7dd4407715ca080e21857fda60405160405180910390a25050565b82805482825590600052602060002090810192821561214c579160200282015b8281111561214b57825182908161213b91906135e4565b5091602001919060010190612124565b5b5090506121599190612200565b5090565b604051806101600160405280600081526020016060815260200160608152602001606081526020016060815260200160608152602001606081526020016000815260200160608152602001606081526020016000151581525090565b604051806101000160405280606081526020016060815260200160608152602001606081526020016060815260200160608152602001600015158152602001606081525090565b5b8082111561222057600081816122179190612224565b50600101612201565b5090565b50805461223090613407565b6000825580601f106122425750612261565b601f0160209004906000526020600020908101906122609190612264565b5b50565b5b8082111561227d576000816000905550600101612265565b5090565b6000604051905090565b600080fd5b600080fd5b6000819050919050565b6122a881612295565b81146122b357600080fd5b50565b6000813590506122c58161229f565b92915050565b600080fd5b6000601f19601f8301169050919050565b7f4e487b7100000000000000000000000000000000000000000000000000000000600052604160045260246000fd5b612319826122d0565b810181811067ffffffffffffffff82111715612338576123376122e1565b5b80604052505050565b600061234b612281565b90506123578282612310565b919050565b600080fd5b600080fd5b600080fd5b600067ffffffffffffffff821115612386576123856122e1565b5b61238f826122d0565b9050602081019050919050565b82818337600083830152505050565b60006123be6123b98461236b565b612341565b9050828152602081018484840111156123da576123d9612366565b5b6123e584828561239c565b509392505050565b600082601f83011261240257612401612361565b5b81356124128482602086016123ab565b91505092915050565b60008115159050919050565b6124308161241b565b811461243b57600080fd5b50565b60008135905061244d81612427565b92915050565b6000610100828403121561246a576124696122cb565b5b612475610100612341565b9050600082013567ffffffffffffffff8111156124955761249461235c565b5b6124a1848285016123ed565b600083015250602082013567ffffffffffffffff8111156124c5576124c461235c565b5b6124d1848285016123ed565b602083015250604082013567ffffffffffffffff8111156124f5576124f461235c565b5b612501848285016123ed565b604083015250606082013567ffffffffffffffff8111156125255761252461235c565b5b612531848285016123ed565b606083015250608082013567ffffffffffffffff8111156125555761255461235c565b5b612561848285016123ed565b60808301525060a082013567ffffffffffffffff8111156125855761258461235c565b5b612591848285016123ed565b60a08301525060c06125a58482850161243e565b60c08301525060e082013567ffffffffffffffff8111156125c9576125c861235c565b5b6125d5848285016123ed565b60e08301525092915050565b600080604083850312156125f8576125f761228b565b5b6000612606858286016122b6565b925050602083013567ffffffffffffffff81111561262757612626612290565b5b61263385828601612453565b9150509250929050565b6000602082840312156126535761265261228b565b5b6000612661848285016122b6565b91505092915050565b600081519050919050565b600082825260208201905092915050565b6000819050602082019050919050565b61269f81612295565b82525050565b600081519050919050565b600082825260208201905092915050565b60005b838110156126df5780820151818401526020810190506126c4565b60008484015250505050565b60006126f6826126a5565b61270081856126b0565b93506127108185602086016126c1565b612719816122d0565b840191505092915050565b61272d8161241b565b82525050565b600081519050919050565b600082825260208201905092915050565b6000819050602082019050919050565b600061276b83836126eb565b905092915050565b6000602082019050919050565b600061278b82612733565b612795818561273e565b9350836020820285016127a78561274f565b8060005b858110156127e357848403895281516127c4858261275f565b94506127cf83612773565b925060208a019950506001810190506127ab565b50829750879550505050505092915050565b60006101c08301600083015161280e6000860182612696565b506020830151848203602086015261282682826126eb565b9150506040830151848203604086015261284082826126eb565b9150506060830151848203606086015261285a82826126eb565b915050608083015161286f6080860182612696565b5060a083015161288260a0860182612696565b5060c083015184820360c086015261289a82826126eb565b91505060e083015184820360e08601526128b482826126eb565b9150506101008301516128cb610100860182612724565b506101208301516128e0610120860182612724565b506101408301516128f5610140860182612724565b5061016083015184820361016086015261290f82826126eb565b91505061018083015184820361018086015261292b82826126eb565b9150506101a08301518482036101a08601526129478282612780565b9150508091505092915050565b600061296083836127f5565b905092915050565b6000602082019050919050565b60006129808261266a565b61298a8185612675565b93508360208202850161299c85612686565b8060005b858110156129d857848403895281516129b98582612954565b94506129c483612968565b925060208a019950506001810190506129a0565b50829750879550505050505092915050565b60006020820190508181036000830152612a048184612975565b905092915050565b60008060008060008060008060006101208a8c031215612a2f57612a2e61228b565b5b60008a013567ffffffffffffffff811115612a4d57612a4c612290565b5b612a598c828d016123ed565b99505060208a013567ffffffffffffffff811115612a7a57612a79612290565b5b612a868c828d016123ed565b98505060408a013567ffffffffffffffff811115612aa757612aa6612290565b5b612ab38c828d016123ed565b97505060608a013567ffffffffffffffff811115612ad457612ad3612290565b5b612ae08c828d016123ed565b96505060808a013567ffffffffffffffff811115612b0157612b00612290565b5b612b0d8c828d016123ed565b95505060a08a013567ffffffffffffffff811115612b2e57612b2d612290565b5b612b3a8c828d016123ed565b94505060c0612b4b8c828d016122b6565b93505060e08a013567ffffffffffffffff811115612b6c57612b6b612290565b5b612b788c828d016123ed565b9250506101008a013567ffffffffffffffff811115612b9a57612b99612290565b5b612ba68c828d016123ed565b9150509295985092959850929598565b600067ffffffffffffffff821115612bd157612bd06122e1565b5b602082029050602081019050919050565b600080fd5b6000612bfa612bf584612bb6565b612341565b90508083825260208201905060208402830185811115612c1d57612c1c612be2565b5b835b81811015612c6457803567ffffffffffffffff811115612c4257612c41612361565b5b808601612c4f89826123ed565b85526020850194505050602081019050612c1f565b5050509392505050565b600082601f830112612c8357612c82612361565b5b8135612c93848260208601612be7565b91505092915050565b60006101c08284031215612cb357612cb26122cb565b5b612cbe6101c0612341565b90506000612cce848285016122b6565b600083015250602082013567ffffffffffffffff811115612cf257612cf161235c565b5b612cfe848285016123ed565b602083015250604082013567ffffffffffffffff811115612d2257612d2161235c565b5b612d2e848285016123ed565b604083015250606082013567ffffffffffffffff811115612d5257612d5161235c565b5b612d5e848285016123ed565b6060830152506080612d72848285016122b6565b60808301525060a0612d86848285016122b6565b60a08301525060c082013567ffffffffffffffff811115612daa57612da961235c565b5b612db6848285016123ed565b60c08301525060e082013567ffffffffffffffff811115612dda57612dd961235c565b5b612de6848285016123ed565b60e083015250610100612dfb8482850161243e565b61010083015250610120612e118482850161243e565b61012083015250610140612e278482850161243e565b6101408301525061016082013567ffffffffffffffff811115612e4d57612e4c61235c565b5b612e59848285016123ed565b6101608301525061018082013567ffffffffffffffff811115612e7f57612e7e61235c565b5b612e8b848285016123ed565b610180830152506101a082013567ffffffffffffffff811115612eb157612eb061235c565b5b612ebd84828501612c6e565b6101a08301525092915050565b60008060408385031215612ee157612ee061228b565b5b6000612eef858286016122b6565b925050602083013567ffffffffffffffff811115612f1057612f0f612290565b5b612f1c85828601612c9c565b9150509250929050565b612f2f81612295565b82525050565b600082825260208201905092915050565b6000612f51826126a5565b612f5b8185612f35565b9350612f6b8185602086016126c1565b612f74816122d0565b840191505092915050565b612f888161241b565b82525050565b600061016082019050612fa4600083018e612f26565b8181036020830152612fb6818d612f46565b90508181036040830152612fca818c612f46565b90508181036060830152612fde818b612f46565b90508181036080830152612ff2818a612f46565b905081810360a08301526130068189612f46565b905081810360c083015261301a8188612f46565b905061302960e0830187612f26565b81810361010083015261303c8186612f46565b90508181036101208301526130518185612f46565b9050613061610140830184612f7f565b9c9b505050505050505050505050565b60006020820190506130866000830184612f26565b92915050565b6000610160830160008301516130a56000860182612696565b50602083015184820360208601526130bd82826126eb565b915050604083015184820360408601526130d782826126eb565b915050606083015184820360608601526130f182826126eb565b9150506080830151848203608086015261310b82826126eb565b91505060a083015184820360a086015261312582826126eb565b91505060c083015184820360c086015261313f82826126eb565b91505060e083015161315460e0860182612696565b5061010083015184820361010086015261316e82826126eb565b91505061012083015184820361012086015261318a82826126eb565b9150506101408301516131a1610140860182612724565b508091505092915050565b60006101008301600083015184820360008601526131ca82826126eb565b915050602083015184820360208601526131e482826126eb565b915050604083015184820360408601526131fe82826126eb565b9150506060830151848203606086015261321882826126eb565b9150506080830151848203608086015261323282826126eb565b91505060a083015184820360a086015261324c82826126eb565b91505060c083015161326160c0860182612724565b5060e083015184820360e086015261327982826126eb565b9150508091505092915050565b600060408201905081810360008301526132a0818561308c565b905081810360208301526132b481846131ac565b90509392505050565b60006101008201905081810360008301526132d8818b612f46565b905081810360208301526132ec818a612f46565b905081810360408301526133008189612f46565b905081810360608301526133148188612f46565b905081810360808301526133288187612f46565b905081810360a083015261333c8186612f46565b905061334b60c0830185612f7f565b81810360e083015261335d8184612f46565b90509998505050505050505050565b7f496e76616c696420736d61727470686f6e652049440000000000000000000000600082015250565b60006133a2601583612f35565b91506133ad8261336c565b602082019050919050565b600060208201905081810360008301526133d181613395565b9050919050565b7f4e487b7100000000000000000000000000000000000000000000000000000000600052602260045260246000fd5b6000600282049050600182168061341f57607f821691505b602082108103613432576134316133d8565b5b50919050565b60008190508160005260206000209050919050565b60006020601f8301049050919050565b600082821b905092915050565b60006008830261349a7fffffffffffffffffffffffffffffffffffffffffffffffffffffffffffffffff8261345d565b6134a4868361345d565b95508019841693508086168417925050509392505050565b6000819050919050565b60006134e16134dc6134d784612295565b6134bc565b612295565b9050919050565b6000819050919050565b6134fb836134c6565b61350f613507826134e8565b84845461346a565b825550505050565b600090565b613524613517565b61352f8184846134f2565b505050565b5b818110156135535761354860008261351c565b600181019050613535565b5050565b601f8211156135985761356981613438565b6135728461344d565b81016020851015613581578190505b61359561358d8561344d565b830182613534565b50505b505050565b600082821c905092915050565b60006135bb6000198460080261359d565b1980831691505092915050565b60006135d483836135aa565b9150826002028217905092915050565b6135ed826126a5565b67ffffffffffffffff811115613606576136056122e1565b5b6136108254613407565b61361b828285613557565b600060209050601f83116001811461364e576000841561363c578287015190505b61364685826135c8565b8655506136ae565b601f19841661365c86613438565b60005b828110156136845784890151825560018201915060208501945060208101905061365f565b868310156136a1578489015161369d601f8916826135aa565b8355505b6001600288020188555050505b505050505050565b7f536d61727470686f6e65206e6f7420666f756e64000000000000000000000000600082015250565b60006136ec601483612f35565b91506136f7826136b6565b602082019050919050565b6000602082019050818103600083015261371b816136df565b9050919050565b600081905092915050565b6000613738826126a5565b6137428185613722565b93506137528185602086016126c1565b80840191505092915050565b600061376a828461372d565b915081905092915050565b7f494d454920616c72656164792072656769737465726564000000000000000000600082015250565b60006137ab601783612f35565b91506137b682613775565b602082019050919050565b600060208201905081810360008301526137da8161379e565b9050919050565b7f4e487b7100000000000000000000000000000000000000000000000000000000600052601160045260246000fd5b600061381b82612295565b91507fffffffffffffffffffffffffffffffffffffffffffffffffffffffffffffffff820361384d5761384c6137e1565b5b600182019050919050565b600060208201905081810360008301526138728184612f46565b90509291505056fea264697066735822122050618a884c4f0e4d276e419641ff89a9442401655e89e7cf528083d08448686d64736f6c634300081c0033",
  "linkReferences": {},
  "deployedLinkReferences": {}
}